:020000040800F2
:100000000000032075260008C1260008C12600084C
:10001000C1260008C1260008C12600080000000013
:10002000000000000000000000000000C11D0008EA
:10003000C126000800000000851E0008DD1E000823
:10004000C1260008C1260008C1260008C1260008F4
:10005000C1260008C1260008C1260008C1260008E4
:10006000C1260008C1260008C1260008C1260008D4
:10007000C1260008C1260008C1260008C1260008C4
:10008000C1260008C1260008C1260008C1260008B4
:10009000C1260008C1260008C1260008C1260008A4
:1000A000C1260008C1260008C1260008C126000894
:1000B000D9200008C1260008C1260008C126000872
:1000C000C1260008C1260008C1260008C126000874
:1000D000C126000835250008C1260008C1260008F1
:1000E000C1260008C1260008C1260008C126000854
:1000F000C1260008C1260008C1260008C126000844
:10010000C1260008C1260008C1260008C126000833
:10011000C1260008C1260008C1260008C126000823
:10012000C1260008C1260008C1260008C126000813
:10013000C1260008C1260008C1260008C126000803
:10014000C1260008C1260008C1260008C1260008F3
:10015000C1260008C1260008C1260008C1260008E3
:10016000C1260008C1260008C1260008C1260008D3
:10017000C1260008C1260008C1260008C1260008C3
:10018000C1260008C1260008C1260008C1260008B3
:10019000C1260008C1260008C1260008C1260008A3
:0C01A00071250008C1260008C1260008D7
:1001B000A8D9010800000020100900201009002023
:1001C00070390120844641EA000313F003036DD126
:1001D000403A41D351F8043B40F8043B51F8043B0A
:1001E00040F8043B51F8043B40F8043B51F8043B11
:1001F00040F8043B51F8043B40F8043B51F8043B01
:1002000040F8043B51F8043B40F8043B51F8043BF0
:1002100040F8043B51F8043B40F8043B51F8043BE0
:1002200040F8043B51F8043B40F8043B51F8043BD0
:1002300040F8043B51F8043B40F8043B51F8043BC0
:1002400040F8043B51F8043B40F8043B51F8043BB0
:1002500040F8043B403ABDD2303211D351F8043B50
:1002600040F8043B51F8043B40F8043B51F8043B90
:1002700040F8043B51F8043B40F8043B103AEDD2FF
:100280000C3205D351F8043B40F8043B043AF9D250
:10029000043208D0D2071CBF11F8013B00F8013B23
:1002A00001D30B8803806046704700BF082A13D330
:1002B0008B078DD010F003038AD0C3F10403D21A48
:1002C000DB071CBF11F8013B00F8013B80D331F87C
:1002D000023B20F8023B7BE7043AD9D3013A11F8FC
:1002E000013B00F8013BF9D20B7803704B78437067
:1002F0008B7883706046704740EA010C1CF0070F52
:1003000023D1BDF1100DCDE90245CDE900676FF0B5
:1003100000064FF0000700BFF0E80223F1E80245B5
:10032000A24282FA46FCA7FA86FC08BFBCF1000F85
:1003300040F0D780AB4283FA46FCA7FA86FC08BFA0
:10034000BCF1000F40F0CA80E6E710F0030C21D0AA
:1003500020F0030050F8042B5FEACC7C08D00FD2C9
:1003600011F801CB5FFA92F3B3EB0C0C10D17BB117
:1003700011F801CB5FFAA2F3B3EB0C0C08D13BB13F
:1003800011F801CB5FFAB2F3B3EB0C0C00D10BB94F
:1003900060467047BDF1100DCDE90245CDE900671B
:1003A0006FF000064FF0000711F0030C2DD110F094
:1003B000040F0DD050F8042B51F8044BA24282FADE
:1003C00046FCA7FA86FC08BFBCF1000F40F089800C
:1003D00011F0040F9FD051F8045B00BFF0E8022336
:1003E000AA4282FA46FCA7FA86FC08BFBCF1000FBD
:1003F00071D1F1E80245A34283FA46FCA7FA86FCD4
:1004000008BFBCF1000F63D1E8E721F00301BCF1A4
:10041000020F1ED03BDA51F8045B00BF50F8043BDA
:100420004FEA152583FA46FCA7FA86FCB7EB0C2F9A
:1004300003EA162208BFAA424DD151F8045BBCF171
:10044000000F82EA03034FEA056208BF93423CD1E2
:10045000E4E751F8045B00BF50F8043B4FEA154550
:1004600083FA46FCA7FA86FCB7EB0C4F03EA164268
:1004700008BFAA422FD151F8045BBCF1000F82EAF9
:1004800003034FEA054208BF93421ED1E4E751F847
:10049000045B00BF50F8043B4FEA156583FA46FC45
:1004A000A7FA86FCB7EB0C6F03EA166208BFAA42F4
:1004B00011D151F8045BBCF1000F82EA03034FEA4B
:1004C000052208BF934200D1E4E719BA12BA0AE044
:1004D00019BA22BA07E011BA2ABA04E019BA2ABA3C
:1004E00001E011BA22BA9CFA8CF0DDE90067DDE97F
:1004F00002451DF1100D38B1B0FA80F0C0F11800BE
:1005000021FA00F122FA00F20120914298BF8041C5
:10051000704700BF81F0004102E000BF83F000435C
:1005200030B54FEA41044FEA430594EA050F08BF8E
:1005300090EA020F1FBF54EA000C55EA020C7FEA52
:10054000645C7FEA655C00F0E2804FEA5454D4EBCF
:100550005555B8BF6D420CDD2C4480EA020281EA99
:10056000030382EA000083EA010180EA020281EAD1
:100570000303362D88BF30BD11F0004F4FEA013123
:100580004FF4801C4CEA113102D0404261EB410132
:1005900013F0004F4FEA03334CEA133302D05242B8
:1005A00063EB430394EA050F00F0A780A4F1010474
:1005B000D5F1200E0DDB02FA0EFC22FA05F28018AE
:1005C00041F1000103FA0EF2801843FA05F3594194
:1005D0000EE0A5F120050EF1200E012A03FA0EFC13
:1005E00028BF4CF0020C43FA05F3C01851EBE3713D
:1005F00001F0004507D54FF0000EDCF1000C7EEB5A
:1006000000006EEB0101B1F5801F1BD3B1F5001F97
:100610000CD349085FEA30004FEA3C0C04F10104B6
:100620004FEA445212F5800F80F09A80BCF1004FDF
:1006300008BF5FEA500C50F1000041EB045141EA61
:10064000050130BD5FEA4C0C404141EB010111F462
:10065000801FA4F10104E9D191F0000F04BF01460D
:100660000020B1FA81F308BF2033A3F10B03B3F1EB
:1006700020020CDA0C3208DD02F1140CC2F10C027B
:1006800001FA0CF021FA02F10CE002F11402D8BFD9
:10069000C2F1200C01FA02F120FA0CFCDCBF41EAA5
:1006A0000C019040E41AA2BF01EB0451294330BD74
:1006B0006FEA04041F3C1CDA0C340EDC04F1140451
:1006C000C4F1200220FA04F001FA02F340EA030028
:1006D00021FA04F345EA030130BDC4F10C04C4F16E
:1006E000200220FA02F001FA04F340EA030029464E
:1006F00030BD21FA04F0294630BD94F0000F83F498
:10070000801306BF81F480110134013D4EE77FEA7A
:10071000645C18BF7FEA655C29D094EA050F08BFC6
:1007200090EA020F05D054EA000C04BF19461046A7
:1007300030BD91EA030F1EBF0021002030BD5FEAEB
:10074000545C05D14000494128BF41F0004130BD13
:1007500014F580043CBF01F5801130BD01F0004567
:1007600045F0FE4141F470014FF0000030BD7FEADA
:10077000645C1ABF194610467FEA655C1CBF0B46D5
:10078000024650EA013406BF52EA033591EA030FEC
:1007900041F4002130BD00BF90F0000F04BF0021E4
:1007A000704730B54FF4806404F132044FF0000517
:1007B0004FF0000150E700BF90F0000F04BF002190
:1007C000704730B54FF4806404F1320410F00045F6
:1007D00048BF40424FF000013EE700BF42004FEAF1
:1007E000E2014FEA31014FEA02701FBF12F07F436E
:1007F00093F07F4F81F06051704792F0000F14BF6B
:1008000093F07F4F704730B54FF4607401F00045AE
:1008100021F0004120E700BF50EA010208BF704705
:1008200030B54FF000050AE050EA010208BF7047FA
:1008300030B511F0004502D5404261EB41014FF463
:10084000806404F132045FEA915C3FF4DCAE4FF067
:1008500003025FEADC0C18BF03325FEADC0C18BF4E
:10086000033202EBDC02C2F1200300FA03FC20FA9F
:1008700002F001FA03FE40EA0E0021FA02F11444EC
:10088000C1E600BF70B54FF0FF0C4CF4E06C1CEA01
:1008900011541DBF1CEA135594EA0C0F95EA0C0F76
:1008A00000F0DEF82C4481EA030621EA4C5123EAE9
:1008B0004C5350EA013518BF52EA033541F4801118
:1008C00043F4801338D0A0FB02CE4FF00005E1FBCB
:1008D00002E506F00042E0FB03E54FF00006E1FB15
:1008E00003569CF0000F18BF4EF0010EA4F1FF0458
:1008F000B6F5007F64F5407404D25FEA4E0E6D4198
:1009000046EB060642EAC62141EA55514FEAC520A8
:1009100040EA5E504FEACE2EB4F1FD0C88BFBCF524
:10092000E06F1ED8BEF1004F08BF5FEA500E50F1D5
:10093000000041EB045170BD06F0004646EA01019B
:1009400040EA020081EA0301B4EB5C04C2BFD4EBCD
:100950000C0541EA045170BD41F480114FF0000EC6
:10096000013C00F3AB8014F1360FDEBF002001F034
:10097000004170BDC4F10004203C35DA0C341BDCAE
:1009800004F11404C4F1200500FA05F320FA04F080
:1009900001FA05F240EA020001F0004221F00041B4
:1009A00010EBD37021FA04F642EB06015EEA430E27
:1009B00008BF20EAD37070BDC4F10C04C4F1200557
:1009C00000FA04F320FA05F001FA04F240EA02000A
:1009D00001F0004110EBD37041F100015EEA430EDB
:1009E00008BF20EAD37070BDC4F1200500FA05F2FB
:1009F0004EEA020E20FA04F301FA05F243EA02037A
:100A000021FA04F001F0004121FA04F220EA020088
:100A100000EBD3705EEA430E08BF20EAD37070BDCE
:100A200094F0000F0FD101F00046400041EB0101AE
:100A300011F4801F08BF013CF7D041EA060195F090
:100A4000000F18BF704703F00046520043EB03034A
:100A500013F4801F08BF013DF7D043EA0603704737
:100A600094EA0C0F0CEA135518BF95EA0C0F0CD042
:100A700050EA410618BF52EA4306D1D181EA030188
:100A800001F000414FF0000070BD50EA410606BF82
:100A90001046194652EA430619D094EA0C0F02D1C7
:100AA00050EA013613D195EA0C0F05D152EA03360C
:100AB0001CBF104619460AD181EA030101F000412A
:100AC00041F0FE4141F470014FF0000070BD41F073
:100AD000FE4141F4780170BD70B54FF0FF0C4CF44D
:100AE000E06C1CEA11541DBF1CEA135594EA0C0F6C
:100AF00095EA0C0F00F0A7F8A4EB050481EA030EB9
:100B000052EA03354FEA013100F088804FEA03339F
:100B10004FF0805545EA131343EA12634FEA02226D
:100B200045EA111545EA10654FEA00260EF000412E
:100B30009D4208BF964244F1FD0404F5407402D280
:100B40005B084FEA3202B61A65EB03055B084FEA11
:100B500032024FF480104FF4002CB6EB020E75EB0E
:100B6000030E22BFB61A754640EA0C005B084FEA36
:100B70003202B6EB020E75EB030E22BFB61A7546B3
:100B800040EA5C005B084FEA3202B6EB020E75EBFE
:100B9000030E22BFB61A754640EA9C005B084FEA76
:100BA0003202B6EB020E75EB030E22BFB61A754683
:100BB00040EADC0055EA060E18D04FEA051545EA72
:100BC00016754FEA06164FEAC30343EA52734FEA1B
:100BD000C2025FEA1C1CC0D111F4801F0BD141EA94
:100BE00000014FF000004FF0004CB6E711F4801FF9
:100BF00004BF01430020B4F1FD0C88BFBCF5E06FD9
:100C00003FF6AFAEB5EB030C04BFB6EB020C5FEAE8
:100C1000500C50F1000041EB045170BD0EF0004E3D
:100C20004EEA113114EB5C04C2BFD4EB0C0541EA6F
:100C3000045170BD41F480114FF0000E013C90E66C
:100C400045EA060E8DE60CEA135594EA0C0F08BF30
:100C500095EA0C0F3FF43BAF94EA0C0F0AD150EA2F
:100C600001347FF434AF95EA0C0F7FF425AF1046C2
:100C700019462CE795EA0C0F06D152EA03353FF4EA
:100C8000FDAE1046194622E750EA410618BF52EA67
:100C900043067FF4C5AE50EA41047FF40DAF52EA3B
:100CA00043057FF4EBAE12E74FF0FF3C06E000BFD8
:100CB0004FF0010C02E000BF4FF0010C4DF804CDE5
:100CC0004FEA410C7FEA6C5C4FEA430C18BF7FEAA5
:100CD0006C5C1BD001B050EA410C0CBF52EA430CD3
:100CE00091EA030F02BF90EA020F0020704710F153
:100CF000000F91EA030F58BF994208BF90422CBFE2
:100D0000D8176FEAE37040F0010070474FEA410CDA
:100D10007FEA6C5C02D150EA013C07D14FEA430CF8
:100D20007FEA6C5CD6D152EA033CD3D05DF8040B69
:100D3000704700BF8446104662468C46194663469B
:100D400000E000BF01B5FFF7B7FF002848BF10F172
:100D5000000F01BD4DF808EDFFF7F4FF0CBF0120B7
:100D600000205DF808FB00BF4DF808EDFFF7EAFF33
:100D700034BF012000205DF808FB00BF4DF808EDEE
:100D8000FFF7E0FF94BF012000205DF808FB00BFE3
:100D90004DF808EDFFF7CEFF94BF012000205DF86D
:100DA00008FB00BF4DF808EDFFF7C4FF34BF01207A
:100DB00000205DF808FB00BF4FEA410212F5001267
:100DC00015D211D56FF47873B3EB625212D94FEA92
:100DD000C12343F0004343EA505311F0004F23FA7C
:100DE00002F018BF404270474FF00000704750EAD1
:100DF000013005D111F0004008BF6FF0004070478E
:100E00004FF00000704700BF4A0011D212F50012E7
:100E100011D20DD56FF47873B3EB62520ED44FEA52
:100E2000C12343F0004343EA505323FA02F07047D2
:100E30004FF00000704750EA013002D14FF0FF3010
:100E400070474FF0000070474BB942B9002908BF06
:100E5000002802D04FF0FF31084600F03BB882B0C6
:100E6000EC462DE9005000F01DF8DDF804E002B07A
:100E70000CBC70472DE97043069E14461D46804603
:100E8000894600F029F804FB01F300FB0533A4FBBD
:100E900000451D44B8EB040469EB0505C6E90045AF
:100EA000BDE870832DE97043069E1446804689464E
:100EB0001D4600F05DF900FB05F504FB0153A0FBA6
:100EC00004451D44B8EB040469EB0505C6E900457B
:100ED000BDE87083704700BF00292DE9F00FC0F214
:100EE0009F800024002BC0F29680154606460F46D0
:100EF000002B3ED18A4257D9B2FA82F34BB1C3F1EB
:100F0000200201FA03F720FA02F29D40174300FA8B
:100F100003F6290CB7FBF1F2330C01FB127CA8B2EB
:100F200043EA0C4700FB02F3BB4209D97F1902F1E7
:100F3000FF3C80F00181BB4240F2FE80023A2F4428
:100F4000FF1AB7FBF1F3B6B201FB137146EA014198
:100F500000FB03F0884208D9491903F1FF3780F0FC
:100F6000ED80884240F2EA80023B43EA02420023DD
:100F700003E08B420AD900231A461046194614B1E1
:100F8000404261EB4101BDE8F00F7047B3FA83F8CE
:100F9000B8F1000F40F084808B4202D3824200F20D
:100FA000DE8000230122E8E712B90123B3FBF2F54A
:100FB000B5FA85F2002A39D17F1B280C1FFA85FC6F
:100FC0000123B7FBF0F1320C00FB117742EA07472F
:100FD0000CFB01F2BA4207D97F1901F1FF3802D2A6
:100FE000BA4200F2C1804146BF1AB7FBF0F2B6B276
:100FF00000FB127046EA00400CFB02FC844507D956
:10100000401902F1FF3702D2844500F2AB803A4624
:1010100042EA0142B1E7E443524263EB430364E72F
:10102000404261EB41014FF0FF345BE79540C2F174
:10103000200327FA03F1280C26FA03F39740B1FBAB
:10104000F0F81F433B0C00FB18111FFA85FC43EA24
:1010500001410CFB08F38B4206FA02F608D9491944
:1010600008F1FF3279D28B4277D9A8F102082944DE
:10107000C91AB1FBF0F3BFB200FB131147EA0147F5
:101080000CFB03F2BA4207D97F1903F1FF3160D29A
:10109000BA425ED9023B2F44BF1A43EA084390E7A5
:1010A000C8F1200203FA08FC25FA02F343EA0C0C0B
:1010B0004FEA1C4921FA02F301FA08F720FA02F27A
:1010C000B3FBF9F1174309FB11333A0C1FFA8CFB00
:1010D00042EA03430BFB01FA9A4505FA08F008D9E6
:1010E00013EB0C0301F1FF3235D29A4533D90239A3
:1010F0006344CAEB0303B3FBF9F209FB1233BFB23B
:1011000047EA03470BFB02F9B94508D917EB0C076F
:1011100002F1FF331BD2B94519D9023A674442EABA
:101120000145A5FB0001C9EB07078F424FF0000303
:101130000AD305D02A4620E7624601E73B4614E77A
:1011400006FA08F68642F5D26A1E002315E71A460B
:10115000E5E70B46A0E71146CBE7904688E7434614
:1011600042460AE7023A53E702392F443CE700BF00
:101170002DE9F00F144605460E46002B43D18A4256
:1011800053D9B2FA82F757B1C7F1200620FA06F612
:1011900001FA07F302FA07F41E4300FA07F5210CDF
:1011A000B6FBF1F22B0C01FB1267A0B243EA074633
:1011B00000FB02F3B34209D9361902F1FF3780F080
:1011C000F680B34240F2F380023A2644F61AB6FBA8
:1011D000F1F3ADB201FB136145EA014100FB03F0FD
:1011E000884208D9091903F1FF3680F0E28088426D
:1011F00040F2DF80023B43EA0242002310461946D8
:10120000BDE8F00F70478B424AD8B3FA83F6002E40
:101210004DD18B4202D3824200F2D68000230122BC
:1012200010461946BDE8F00F704712B90124B4FB0F
:10123000F2F4B4FA84F2002A7CD1091B260CA7B27E
:101240000123B1FBF6F02A0C06FB101142EA014122
:1012500007FB00F28A4207D9091900F1FF3C02D2CC
:101260008A4200F2C3806046891AB1FBF6F2ADB241
:1012700006FB121145EA014507FB02F7AF4208D908
:101280002C1902F1FF3180F09680A74240F2938042
:10129000023A42EA004210461946BDE8F00F704794
:1012A00000231A4610461946BDE8F00F7047C6F1F4
:1012B000200522FA05F4B3401C434FEA144821FAF2
:1012C00005F301FA06F720FA05F5B3FBF8FC2F4306
:1012D00008FB1C333D0C1FFA84FA45EA03430AFB62
:1012E0000CF9994502FA06FB04D91B190CF1FF32DF
:1012F0006DD39446C9EB0303B3FBF8F508FB153334
:10130000BFB247EA03470AFB05F8B84504D93F19BD
:1013100005F1FF3361D31D4645EA0C4CACFB0B23B2
:10132000C8EB07079F424FF0000549D345D06246FE
:101330002B4663E79440C2F1200321FA03FC260CFC
:1013400020FA03F301FA02F5BCFBF6F843EA0501C3
:101350000B0C06FB18CCA7B243EA0C4C07FB08F3B6
:10136000634500FA02F509D91CEB040C08F1FF32C1
:101370003AD2634538D9A8F10208A444C3EB0C0C57
:10138000BCFBF6F389B206FB13CC41EA0C4107FB28
:1013900003F28A4207D9091903F1FF3022D28A42A7
:1013A00020D9023B2144891A43EA084349E73A46D7
:1013B0000CE733461FE70A466BE7B0409042B6D2CF
:1013C0000CF1FF32002319E73346324616E7994500
:1013D0008FD9ACF1020C23448CE7B8459BD9023D70
:1013E000274499E70346DEE79046C7E702382144E1
:1013F0003AE700BF000000002DE9F04FDFB003F036
:1014000037F91190BE48BF4CDFF814830DF03CFE55
:10141000824694E8070012AB03C323F8022B150C95
:101420000021272234340DF153001D7012F0D2FA3E
:1014300094E807001FAB03C39FEDA77B23F8022BA3
:10144000140C0DF18700002127228DED0A7B1C7002
:1014500012F0C0FA9FEDA27B8DED087B4FF00009E2
:10146000CDF83890CDF83490CDF83090CB46D8F800
:1014700000004FF6FF710EF045F9DDE908019AA36F
:10148000D3E90023FFF77AFC002800F0E781DDE9CB
:10149000080197A3D3E90023FFF742F8CDE908013B
:1014A000DDE90A0190A3D3E90023FFF767FC0028D8
:1014B00000F0CA81DDE90A018DA3D3E90023FFF71B
:1014C0002FF8CDE90A01904BD8F8000009F1010688
:1014D00083FB0619F317C3EBE91987241F2509EBD2
:1014E00089092246A6EB8919009469260195912164
:1014F000AF230DF0DBFF2246D8F8000001950096DF
:10150000AF21A0230DF0D2FF8DE830003246D8F88D
:101510000000A02191230DF0C9FF78224FF47843F9
:10152000D8F80000A0210DF097FFDDE9080117F0C1
:10153000D3F806460F46DDE9080117F00BF9002243
:1015400004460D4630463946704BFFF79BF90022A2
:101550006F4BFEF7E5FFFFF72FFC002286B26B4BC7
:1015600020462946FFF78EF900226A4BFEF7D8FF86
:10157000FFF722FCD8F8003035B204B24FF47846B9
:1015800029462246184600960A230EF0C1FC4FF663
:10159000FF7322462946D8F80000009307230EF077
:1015A000B7FCDDE90A0117F097F806460F46DDE9BA
:1015B0000A0117F0CFF8002204460D46534B30467F
:1015C0003946FFF75FF94CA3D3E90023FEF7A8FFE4
:1015D000FFF7F2FB00224D4B06B229462046FFF7EB
:1015E00051F900224C4BFEF79BFFFFF7E5FBD8F8C3
:1015F000004014234FF4806502B2314620468DE846
:10160000280000240EF092F8D8F80000CDF800A0D1
:101610008221C32212AB01940FF0AAF90FFA89F1CB
:10162000D8F800000194CDF800A0D2221FAB0FF033
:101630009FF93A4840211FFA89F906F0AFFB48B9F3
:101640003648402106F0AAFB0028F9D00BF1010B27
:101650001FFA8BFB3148102106F0A0FB002800F098
:10166000B1802E48202106F099FB002800F0BB80B5
:101670002A48042106F092FB002800F0C580274884
:10168000082106F08BFB002800F0CF800D990C9FFD
:101690000E9C0F915B4640212048069306F07EFB8E
:1016A000102102461D48079206F078FB20210646CD
:1016B0001A4806F073FB04210546184806F06EFB35
:1016C0000F99079A069B0096049002950391059442
:1016D00001972CA826E000BF0000000000000000D9
:1016E000182D4454FB210940182D4454FB2119C0E6
:1016F000C903F3B00B1919400000000000C062409C
:10170000109A0108A89901086766666600004940BA
:101710000000644000005E4000805B40001002401A
:10172000F8360120544912F0C1F90121534806F05E
:1017300035FB08210446524806F030FB224603469A
:10174000002445A84F4912F0B1F9D8F80000CDF8AF
:1017500000A0214622462CAB01940FF009F9214646
:1017600045AB0F22D8F800000194CDF800A00FF08F
:10177000FFF8454807F04CFB0646444807F048FB95
:101780000546434807F044FB324600902B462CA800
:10179000404912F08BF92CABD8F800000194214697
:1017A000CDF800A01E220FF0E3F83B4A4FF0FF31C6
:1017B000106801F019FE00F037FF11A8142103F0A2
:1017C00099F854E62E48102106F0E8FA0028F9D0DE
:1017D0000C9A2B48531C9BB220210C9306F0DEFA86
:1017E00000287FF445AF2648202106F0D7FA0028CC
:1017F000F9D00D9922484B1C9BB204210D9306F0A1
:10180000CDFA00287FF43BAF1D48042106F0C6FA4C
:101810000028F9D00E9A1A48531C9BB208210E9347
:1018200006F0BCFA00287FF431AF1548082106F015
:10183000B5FA0028F9D000240F94274623460E94C9
:101840000D940C94A34626E7DDE90A0108A3D3E929
:101850000023FEF765FECDE90A0134E6DDE9080163
:1018600003A3D3E90023FEF75BFECDE9080117E6E9
:10187000399D52A246DF813F209A010800000240B4
:1018800000100240589A0108002201400020014047
:1018900000210140649A010818090020AFF300807C
:1018A00010B582B002F0E4FE0F4C019000238DF8D9
:1018B00000308DF801300D4807F0AAFA03090C48F2
:1018C0008DF8003007F0A4FA6FEA101369468DF81E
:1018D000013064222068002301F0D0F901A814210E
:1018E00003F008F8E7E700BF1409002000200140DA
:1018F0000022014010B582B000F064FE02210022F7
:10190000642001F00DF80E4B0E49186000240423EA
:101910008DE818004FF47A7223460B4802F04AFB18
:10192000032223460092094901944FF47A72084831
:1019300002F040FB02F044FE204602B010BD00BFA2
:1019400014090020889A0108F9130008949A0108E4
:10195000A1180008000000002DE9F047B2F800A02F
:101960001D88CAEB00044D1B85EAE570A0EBE5700D
:10197000984684EAE473A3EBE47390FBF3F091469A
:10198000FEF71AFF16F000FD002C02460B4637DB6F
:101990001046194625A3D3E90023FEF7C1FD0446EE
:1019A0000D4616F099FE00221F4BFEF76BFF064610
:1019B00050460F46FEF700FF02460B4630463946BA
:1019C000FEF7AEFDFFF720FA2946A9F800002046F1
:1019D00016F0C0FE0022144BFEF754FF0446B8F880
:1019E00000000D46FEF7E8FE02460B46204629465B
:1019F000FEF796FDFFF708FAA8F80000BDE8F087AB
:101A0000002D07A3D3E9002304DBFEF789FD02467E
:101A10000B46BDE7FEF782FD02460B46B8E700BF66
:101A2000182D4454FB21094000004440399D52A226
:101A300046DF613FAFF30080704700BF30B583B031
:101A4000C0F30725ADF80400C4B2AA2000F0ACFD35
:101A5000204600F0A9FD6C40284600F0A5FD204678
:101A600000F0A2FD552003B0BDE8304000F09CBD61
:101A700070B586B000241E4D1E4E8DF808408DF8BE
:101A80000940286869464FF0FF3201F025FB042C1D
:101A9000F7D8DFE804F01C13131303009DF80020AF
:101AA0009DF811309DF81240552A84EA030113D0A5
:101AB0009DF813208A420FD00024E2E79DF8002011
:101AC00006AB2344013403F8082CE4B2D9E79DF8AF
:101AD0000020AA2AD5D1F3E78DF8083030688DF8B8
:101AE0000940002302A964221C4601F0C7F8C8E798
:101AF0001009002014090020FEE700BFFEE700BF28
:101B00008289B42A70B51ED0B2F5877F15D05A2AC3
:101B10000CD0858DC48D808F09F0A6FA2846214609
:101B200001220023BDE8704009F034BD848DC58DCD
:101B3000C4F59F740134A4B2EDE7C58D848DC5F161
:101B4000EF05ADB2E7E7858DC48DC5F59F7501350D
:101B5000C4F1EF04ADB2A4B2DDE700BF10B5044696
:101B6000808F09F081FAA389B42B23D0B3F5877F46
:101B700015D05A2B07D0A08DE18D228E638EBDE843
:101B800010400AF043B9238EA18DE08D628E194476
:101B9000C1F5A07189B2BDE810400AF037B9E08DF7
:101BA000A18D628E238EC0F1EF0080B2BDE810409F
:101BB0000AF02CB9A08DE18D228E638EC0F59F7046
:101BC0000130C1F1EF0180B289B2BDE810400AF0E6
:101BD0001DB900BF10B5808F09F046FA00200146FC
:101BE000F0224FF4A073BDE810400AF00FB900BF17
:101BF00070B500254561856104460CF011FE09F0C1
:101C000099F91248012105F063FE0121104805F001
:101C10005FFE012005F0DEFD012005F099FD28465C
:101C200009F0F8F9FF2009F031FA642232234FF469
:101C3000A076F0255A200321E2732374A081268127
:101C40006581A1734FF0FF3070BD00BF8468014013
:101C50000469014070B50F4C82B04020012106F0AC
:101C600083FA00250122022320464FF4C04669462C
:101C70008DF804208DF8053000968DF806508DF80B
:101C8000075006F011F8044B044A1C6015805C6094
:101C900002B070BD001802401C0900202409002079
:101CA000012838B504460D4600D938BD00F0B6F815
:101CB00000350849084A094B51F8240032F814103D
:101CC00018BF01252A461D5506F080F8BDE83840AA
:101CD00000F0B8B81C090020049B0108240900206A
:101CE000012838B5044600D938BD00F097F80A4BF2
:101CF0000A491D5D0A4A51F8240032F81410D5F142
:101D0000010538BF00252A461D5506F05FF8BDE8DD
:101D1000384000F097B800BF240900201C090020BB
:101D2000049B010801289ABF014B185C00207047F2
:101D3000240900200A4B1B68013308D04FF05003E0
:101D400083F31188BFF36F8FBFF34F8FFEE74FF020
:101D5000500383F31188BFF36F8FBFF34F8FFEE7FC
:101D60000000002005480068006880F3088862B61B
:101D7000BFF34F8FBFF36F8F00DF00BF08ED00E0B0
:101D8000DFF80C00016841F4700101607047000049
:101D900088ED00E010B4094B40F8081C4FF0807447
:101DA0006FF0020140F8044C40F8202C40F80C3C45
:101DB00040F8241C5DF8044B44387047351D00087A
:101DC000064B19680868B0E8F04F80F30988BFF344
:101DD0006F8F4FF0000080F311887047200A0020B9
:101DE000074B1B68B3F57A7F08D04FF0500383F39D
:101DF0001188BFF36F8FBFF34F8FFEE7704700BFAF
:101E000000000020044B4FF080521A60BFF34F8F48
:101E1000BFF36F8F704700BF04ED00E04FF0500339
:101E200083F31188BFF36F8FBFF34F8F044B1A6892
:101E300001321A60BFF34F8FBFF36F8F704700BF3F
:101E400000000020084A136843B94FF0500383F3A1
:101E50001188BFF36F8FBFF34F8FFEE7013B136015
:101E60000BB983F31188704700000020EFF3118055
:101E70004FF0500181F311887047002080F31188E2
:101E8000704700BFEFF30980BFF36F8F124B1A68E2
:101E90001EF0100F08BF20ED108A20E9F04F1060EF
:101EA0004DF8043D4FF0500080F3118802F0A4FF7C
:101EB0004FF0000080F3118808BC19680868B0E88A
:101EC000F04F1EF0100F08BFB0EC108A80F30988A5
:101ED000BFF36F8F704700BF200A002008B5EFF3F3
:101EE00011834FF0500282F31188BFF36F8FBFF35D
:101EF0004F8F02F0E3FB18B1034B4FF080521A6092
:101F0000002383F3118808BD04ED00E0034A044B6D
:101F10000449116007221A60704700BF14E000E016
:101F200010E000E03F90020010B5244B24491C78DB
:101F3000244882B0E4B2FF2201941A701B78DBB20D
:101F40008DF803309DF803409DF8032004F0500401
:101F500007230C70110603600ED5062300E00B4624
:101F60009DF803205200D2B28DF803209DF8032083
:101F7000120603F1FF31F2D4019C1049124A1B02F0
:101F800003F4E063E4B203600C70136843F470037D
:101F90001360136843F070431360FFF7B7FF0B4BF8
:101FA00000221A60FFF7ECFE094B1A6842F040422B
:101FB0001A60FFF7D7FEFFF7BDFE00BF00E400E0A8
:101FC000280900202C09002020ED00E0000000205E
:101FD00034EF00E0EFF305830F2B0ED91049114ABF
:101FE0005B5C12789A4208D94FF0500383F3118852
:101FF000BFF36F8FBFF34F8FFEE70B4A0B4B126897
:102000001B6802F4E0629A4208D94FF0500383F350
:102010001188BFF36F8FBFF34F8FFEE7704700BF8C
:10202000F0E300E0280900200CED00E02C0900207E
:1020300070B5012084B0014606F0BAF8254E0121A2
:10204000022006F0B5F84FF0804006F0B1FF3046B0
:1020500006F0AEFF01A807F0D5F8002542F2D00344
:1020600001A94FF080400293ADF80450ADF80C5038
:10207000ADF8065007F078F84FF08040012107F0E6
:10208000FDF84FF6FF7301A93046029307F06CF894
:102090003046012107F0F2F801241C2368468DF830
:1020A00000308DF802508DF801508DF8034004F097
:1020B000F5F8224621464FF0804007F033FD2146D7
:1020C0004FF0804007F000F93046214607F0FCF859
:1020D00004B070BD00040040124A134B516A1A88C4
:1020E000042A30B489B219D9104A114813880488D7
:1020F000CB1A9BB29C4206D2A3F50354103C0D4D63
:102100000380A4B22C800C4B11801A684FF08040E1
:102110000132012130BC1A6007F026BD501C188026
:10212000024AF0E70004004030090020380900208E
:102130003A0900203C09002034090020414A424B62
:10214000D2F88810414841F47001C2F8881019682B
:10215000002241F0010119609A60196821F0847130
:1021600021F4803119605860196882B021F480210F
:102170001960DA60009201921A6842F480321A60A3
:102180001A4603E0009BB3F5A04F09D0136803F48F
:1021900000330193009B01330093019B002BF1D08E
:1021A000294B1B6813F4003318BF01230193019BD3
:1021B000012B42D0244A264B116C41F0805111640E
:1021C000196841F44041196093689360936843F43F
:1021D00000439360936843F4A0539360136843F003
:1021E0008073136013689B01FCD519490B6843F495
:1021F00080330B604B68164AD803FBD5136843F451
:102200000033136053689B03FCD5124B0E4A40F217
:1022100005711960936823F003039360936843F09A
:1022200002039360936803F00C03082BFAD1054B6B
:102230004FF000629A6002B07047034B064A5A6042
:10224000B8E700BF00ED00E0003802401030002485
:1022500000700040003C0240085A4007164B9A6844
:1022600002F00C02042A24D0082A0AD0134A124B86
:1022700013489968134BC1F30311415CCA401A60BB
:102280007047586859685B6842024CBF0E4A0B4A57
:1022900001F03F01C3F38813B2FBF1F202FB03F23A
:1022A000054B5B68C3F3014301335B00B2FBF3F200
:1022B000DDE7054ADBE700BF003802400024F400F8
:1022C000040000201400002000127A002DE9F04FD5
:1022D000012093B0014605F047FF1020012105F0D1
:1022E00043FF2020012105F03FFF1020012105F0D0
:1022F0006BFF4FF48070012105F066FFDFF8289234
:10230000DFF82882824F834EDFF824B24FF400704A
:10231000012105F059FF4FF48060012100240125BF
:1023200005F052FF4FF0030A0223484602A94FF47A
:10233000C0628DF80C3002928DF80E408DF80F506F
:102340008DF80DA005F0B0FC48460921072205F0E4
:1023500049FD072248460A2105F044FD484602A9E6
:1023600002958DF80C408DF80DA08DF80F4005F00A
:102370009BFC7C2302A9684802938DF80C408DF8E1
:102380000DA08DF80F5005F08FFC484602A902956C
:1023900005F08AFC02A94023604802938DF80CA046
:1023A0008DF80DA08DF80F4005F07EFC20234846E7
:1023B00002A94FF00809029305F076FC0DEB090124
:1023C0005748CDF8089005F06FFC04A804940594D4
:1023D0000694079406F04EFC06F008FC40460CA953
:1023E0000C948DF834408DF835500F9410948DF87E
:1023F000445006F009FC0CA9384606F005FC0CA96F
:10240000304606F001FC40462A460421072306F028
:1024100083FC38462A460521072306F07DFC2A4620
:10242000072330460D2106F077FC4046294606F08A
:10243000D3FC3846294606F0CFFC3046294606F044
:10244000CBFC4046214606F0EDFC3846214606F01E
:10245000E9FC3046214606F0E5FC4046294606F0F8
:1024600023FC3846294606F01FFC2946304606F074
:102470001BFC404606F09CFC384606F099FC3046B2
:1024800006F096FC0C2358464FF4964208A9ADF886
:102490002A300892ADF82C40ADF82840ADF826401F
:1024A000ADF8244006F0ECF92A46584640F2255192
:1024B00006F046FB0526252301A88DF804308DF88B
:1024C00007508DF805608DF8066003F0E7FE294699
:1024D000584606F05BFA582301A88DF804308DF8B1
:1024E00007508DF805608DF8066003F0D7FE28468A
:1024F000294605F0FBFA4846214605F0F7FA4FF465
:10250000A27005F061F9074B1C8013B0BDE8F08F95
:102510000020014000210140001002400014024050
:10252000000802403E090020000002400022014055
:102530000010014030B50C4D83B00024284640F215
:1025400025518DF8004006F023FB50B102A9074841
:10255000AB8801F8083D224669462346006800F032
:1025600003FD03B030BD00BF001001401009002082
:1025700008B5012005F0D6FA00B908BD084B0021C6
:10258000186800F053FD074B4FF080521A60BFF3FC
:102590004F8FBFF36F8F0120BDE8084005F0D0BA20
:1025A0001809002004ED00E0014608B5044806F0D3
:1025B00021FA0348402106F0E1FA0028F9D008BDCD
:1025C0000010014008B5FFF7B9FD4FF4407003F06B
:1025D0005BFE0CF03BFC002005F0C8F80E48FF2124
:1025E00005F022FAFF210D4805F01EFA012005F042
:1025F000F1F801210022642000F092F9084B00213B
:1026000018600322012000F08BF9064B1860BDE82A
:102610000840FFF75BBE00BF8468014004690140C9
:10262000100900201809002038B50E4C258865B126
:10263000002008F0EFFC0C48FF2105F0F5F901201F
:1026400005F0C8F80023238038BD012008F0E2FC23
:102650002946054805F0E8F9012005F0BBF80123FB
:10266000238038BD3E09002004690140FEE700BF19
:10267000704700BF002100F004B80C4B5B5843507A
:1026800004310B480B4B42189A42FFF4F6AF0A4A4A
:1026900000F003B8002342F8043B084B9A42FFF4D1
:1026A000F9AFFFF74BFDFFF725F97047A8D90108EF
:1026B00000000020100900201009002070390120BE
:1026C000FFF7FEBF00F108034FF0FF3100228160E9
:1026D00002604360C3600361704700BF0023036171
:1026E000704700BF436830B49A6805688A609C6888
:1026F0004B606A1C6160996030BC08610260704781
:1027000030B40D686B1C11D000F1080200E01A46CD
:1027100053681C68A542FAD204684B600134996082
:102720008A6051600861046030BC70470269536878
:10273000F2E700BF42688168036910B49160816864
:102740005C684A601A68844208BF5960013A0021F7
:1027500001611A6018685DF8044B704770B5164641
:10276000026C856B04463AB90668104666BB606821
:1027700002F0E8FE666027E06EB98068FDF722FD92
:10278000A168236C62680B449342A36017D323684B
:10279000A360304618E0C068FDF714FD226CE368C2
:1027A0002168524213448B42E36002D263681A44A8
:1027B000E260022E05D135B1013D002004E0304633
:1027C00002E0002000E028460135A56370BD00BF8F
:1027D000026C10B4034672B1C46840681444844269
:1027E00028BF1868DC6028BFD8605DF8044B084635
:1027F000D968FDF7E7BC5DF8044B704770B5044637
:10280000FFF70CFB94F84550EDB26BB2002B15DDD1
:10281000636A9BB104F1240605E06B1E13F0FF050B
:102820000CD0636A53B1304602F09CFC0028F4D00F
:1028300002F096FD6B1E13F0FF05F2D1FF2384F822
:102840004530FFF7FFFAFFF7E9FA94F84450EDB28C
:102850006BB2002B15DD23699BB104F1100605E076
:102860006B1E13F0FF050CD0236953B1304602F004
:1028700079FC0028F4D002F073FD6B1E13F0FF0505
:10288000F2D1FF2384F84430BDE87040FFF7DABA94
:1028900038B504460D46D0B1FFF7C0FA206CE26BA4
:1028A0002368A36002FB00F2101A184400211344AD
:1028B000FF22A163E06084F84420636084F845202F
:1028C00005BB236963B9FFF7BDFA012038BD4FF09E
:1028D000500383F31188BFF36F8FBFF34F8FFEE771
:1028E00004F1100002F03EFC0028ECD00B4B4FF03E
:1028F00080521A60BFF34F8FBFF36F8FFFF7A2FABA
:10290000012038BD04F11000FFF7DCFE04F12400C3
:10291000FFF7D8FEFFF796FA012038BD04ED00E07E
:10292000F8B505460E46174640B94FF0500383F3FD
:102930001188BFF36F8FBFF34F8FFEE769B301FBC1
:1029400000F0503003F018FC044620B300F15003AF
:102950002360E5632664FFF761FA206CE16B23686E
:10296000A36001FB00F1081A002218440B44FF2168
:10297000A263636084F84410E06084F8451004F1B9
:102980001000FFF79FFE04F12400FFF79BFEFFF706
:1029900059FA84F84C702046F8BD502003F0ECFB47
:1029A000044603460028D3D12046F8BD2DE9F04364
:1029B000804685B0502003F0DFFB0446002800F07D
:1029C000C780002501232060C3630564FFF726FA52
:1029D000216CE26B2368A36002FB01F2511A5818C4
:1029E00004F110069918FF22A563616084F8442061
:1029F000E06084F84520304604F12407FFF762FECA
:102A00003846FFF75FFEFFF71DFA236C256065600F
:102A1000E560019584F84C80002B40F0EE8002F0D8
:102A200025FD18B9019B002B40F0F980FFF7F6F95E
:102A3000A26BE36BDFF8049200259A42A84674D398
:102A4000019B002B00F0828015B902A802F032FC35
:102A5000FFF7F8F901F004FEFFF7E0F994F84430CD
:102A60005BB2013308BF84F8448094F845305BB210
:102A7000013308BF84F84580FFF7E4F902A801A9F3
:102A800002F024FC002840F0C180FFF7C7F9A26BD8
:102A9000E36B9A4260D0FFF7D5F9FFF7BFF994F8DE
:102AA0004550EDB26BB2002B04DC10E0013D15F097
:102AB000FF050CD0636A53B1384602F053FB00287F
:102AC000F4D0013D02F04CFC15F0FF05F2D1FF23DC
:102AD00084F84530FFF7B6F9FFF7A0F994F84450B1
:102AE000EDB26BB2002B04DC10E0013D15F0FF05E8
:102AF0000CD0236953B1304602F034FB0028F4D0E7
:102B0000013D02F02DFC15F0FF05F2D1FF2384F802
:102B10004430FFF797F901F073FEFFF77FF9A26BDE
:102B2000E36B9A424FF001058AD200210A46204603
:102B3000FFF714FE636A002B7AD138B13F4B4FF098
:102B400080521A60BFF34F8FBFF36F8FFFF77AF990
:102B5000204605B0BDE8F083FFF774F930460199CF
:102B600002F024FAFFF75AF994F84550EDB26BB22F
:102B7000002B04DC10E0013D15F0FF050CD0636A6A
:102B800053B1384602F0EEFA0028F4D0013D02F0CD
:102B9000E7FB15F0FF05F2D1FF2384F84530FFF77E
:102BA00051F9FFF73BF994F84450EDB26BB2002BAA
:102BB00004DC10E0013D15F0FF050CD0236953B192
:102BC000304602F0CFFA0028F4D0013D02F0C8FBF5
:102BD00015F0FF05F2D1FF2384F84430FFF732F9F6
:102BE00001F00EFE002898D14FF08053C9F8003054
:102BF000BFF34F8FBFF36F8F8FE74FF0500383F317
:102C00001188BFF36F8FBFF34F8FFEE72046FFF7AA
:102C1000F5FD01F0F5FD204605B0BDE8F0834FF06D
:102C2000500383F31188BFF36F8FBFF34F8FFEE71D
:102C3000384602F097FA002880D187E704ED00E0DB
:102C400010B50C4640B94FF0500383F31188BFF321
:102C50006F8FBFF34F8FFEE7884208D24FF05003CB
:102C600083F31188BFF36F8FBFF34F8FFEE700210F
:102C70000222FFF755FE00B1846310BD2DE9F04F2D
:102C800085B004460F4601921D46002800F00281DF
:102C9000002900F03A81022D00F02A8102F0E6FBC3
:102CA000002800F00081FFF7B9F8A26BE36BDFF8B2
:102CB000749200269A42B046C0F0D880022D00F0EF
:102CC000D580DDF804A0BAF1000F00F00681002ED7
:102CD00000F0FF80FFF7B6F801F0C2FCFFF79EF8A6
:102CE00094F844305BB2013308BF84F8448094F810
:102CF00045305BB2013308BF84F84580FFF7A2F886
:102D000002A801A902F0E2FA002840F0D980FFF7FA
:102D100085F8A26BE36B9A424AD0FFF793F8FFF76E
:102D20007DF894F84560F6B273B2002B15DD636A46
:102D30009BB104F1240A05E0013E16F0FF060CD019
:102D4000636A53B1504602F00DFA0028F4D0013EF8
:102D500002F006FB16F0FF06F2D1FF2384F845309F
:102D6000FFF770F8FFF75AF894F84460F6B273B2C0
:102D7000002B15DD23699BB104F1100A05E0013E2B
:102D800016F0FF060CD0236953B1504602F0EAF961
:102D90000028F4D0013E02F0E3FA16F0FF06F2D16B
:102DA000FF2384F84430FFF74DF801F029FD54E08B
:102DB00004F1100AFFF746F85046019902F0F6F8C0
:102DC000FFF72CF894F84560F6B273B2002B15DDCE
:102DD000636A9BB104F1240B05E0013E16F0FF0687
:102DE0000CD0636A53B1584602F0BCF90028F4D005
:102DF000013E02F0B5FA16F0FF06F2D1FF2384F887
:102E00004530FFF71FF8FFF709F894F84460F6B271
:102E100073B2002B04DC10E0013E16F0FF060CD06C
:102E2000236953B1504602F09DF90028F4D0013EC9
:102E300002F096FA16F0FF06F2D1FF2384F8443030
:102E4000FFF700F801F0DCFC38B94FF08053C9F807
:102E50000030BFF34F8FBFF36F8FFEF7DFFFA26B22
:102E6000E36B9A424FF00106BFF428AF39462A4679
:102E70002046FFF773FC636A9BBB38B1294B4FF0C8
:102E800080521A60BFF34F8FBFF36F8FFEF7DAFFE8
:102E900001201BE04FF0500383F31188BFF36F8FC5
:102EA000BFF34F8FFEE7019B002B3FF4FCAE4FF0CA
:102EB000500383F31188BFF36F8FBFF34F8FFEE78B
:102EC0002046FFF79BFC01F09BFC002005B0BDE80D
:102ED000F08F02A802F0EEF9FCE6FEF7B3FF5046D1
:102EE000F4E704F1240002F03DF90028C6D1CDE753
:102EF000E36B012B3FF4D2AE4FF0500383F3118804
:102F0000BFF36F8FBFF34F8FFEE7036C002B3FF4CF
:102F1000C2AE4FF0500383F31188BFF36F8FBFF33E
:102F20004F8FFEE704ED00E038B5044630B1456848
:102F300002F096FA85420AD0002038BD4FF05003C7
:102F400083F31188BFF36F8FBFF34F8FFEE7E16804
:102F50000139E16009B1012038BD20460A460B461F
:102F6000FFF78CFE012038BD2DE9F04104460F46E5
:102F700016461D46D0B100293ED0022D30D0FFF7B5
:102F800029F8EFF311884FF0500383F31188BFF352
:102F90006F8FBFF34F8FA26BE36B9A420FD3022D5B
:102FA0000DD0002088F31188BDE8F0814FF0500368
:102FB00083F31188BFF36F8FBFF34F8FFEE794F851
:102FC00045302A463946DDB22046FFF7C7FB6BB2D3
:102FD00001331DD06B1CDBB284F845300120E1E7E2
:102FE000E36B012BCBD04FF0500383F31188BFF379
:102FF0006F8FBFF34F8FFEE7036C002BBDD04FF0F8
:10300000500383F31188BFF36F8FBFF34F8FFEE739
:10301000636A002BE2D004F1240002F0A3F8002838
:10302000DCD0002EDAD001203060BBE770B504465A
:103030000D4660B3036C43B14FF0500383F3118826
:10304000BFF36F8FBFF34F8FFEE70368002B37D0BE
:10305000FEF7C0FFEFF311864FF0500383F31188A2
:10306000BFF36F8FBFF34F8FA36BE26B934225D2F9
:1030700094F845200133FF2AA363D3B210D0013363
:10308000DBB284F84530012086F3118870BD4FF023
:10309000500383F31188BFF36F8FBFF34F8FFEE7A9
:1030A000636A002BEFD004F1240002F05BF80028E3
:1030B000E9D0002DE7D001202860E5E70020E3E714
:1030C0004368002BC4D04FF0500383F31188BFF343
:1030D0006F8FBFF34F8FFEE72DE9F04385B00446B5
:1030E0000E460192002800F04581002900F05E8123
:1030F00002F0BCF9002800F04681FEF78FFED4F8FC
:103100003890DFF8E08200252F46B9F1000F40F03B
:103110002481019B002B00F0438115B902A802F025
:10312000C9F8FEF78FFE01F09BFAFEF777FE94F8E0
:1031300044305BB2013308BF84F8447094F84530E2
:103140005BB2013308BF84F84570FEF77BFE02A82E
:1031500001A902F0BBF8002840F0A880FEF75EFE4F
:10316000A36B002B57D104F12409FEF76BFE4846F0
:10317000019901F01BFFFEF751FE94F84550EDB2A6
:103180006BB2002B04DC10E0013D15F0FF050CD004
:10319000636A53B1484601F0E5FF0028F4D0013DD1
:1031A00002F0DEF815F0FF05F2D1FF2384F8453078
:1031B000FEF748FEFEF732FE94F84450EDB26BB2D3
:1031C000002B15DD23699BB104F1100905E0013DD9
:1031D00015F0FF050CD0236953B1484601F0C2FF3A
:1031E0000028F4D0013D02F0BBF815F0FF05F2D144
:1031F000FF2384F84430FEF725FE01F001FB002890
:1032000040F0A2804FF08053C8F80030BFF34F8FDA
:10321000BFF36F8F98E0FEF715FEFEF7FFFD94F801
:103220004550EDB26BB2002B15DD636A9BB104F122
:10323000240905E0013D15F0FF050CD0636A53B188
:10324000484601F08FFF0028F4D0013D02F088F8D5
:1032500015F0FF05F2D1FF2384F84530FEF7F2FDAB
:10326000FEF7DCFD94F84450EDB26BB2002B15DD97
:1032700023699BB104F1100905E0013D15F0FF053C
:103280000CD0236953B1484601F06CFF0028F4D0FC
:10329000013D02F065F815F0FF05F2D1FF2384F837
:1032A0004430FEF7CFFD01F0ABFA4DE0FEF7B6FD7E
:1032B00094F84550EDB26BB2002B15DD636A9BB1FB
:1032C00004F1240905E0013D15F0FF050CD0636A07
:1032D00053B1484601F046FF0028F4D0013D02F00A
:1032E0003FF815F0FF05F2D1FF2384F84530FEF7D3
:1032F000A9FDFEF793FD94F84450EDB26BB2002B9C
:1033000015DD23699BB104F1100905E0013D15F0BD
:10331000FF050CD0236953B1484601F023FF002874
:10332000F4D0013D02F01CF815F0FF05F2D1FF23A7
:1033300084F84430FEF786FD01F062FAFEF76EFD78
:10334000A36B6BB3FEF77EFDFEF768FDD4F83890F3
:103350000125B9F1000F3FF4DCAE31462046FFF7FE
:1033600037FA09F1FF33A363236963BBFEF76AFDF4
:10337000012018E04FF0500383F31188BFF36F8FE3
:10338000BFF34F8FFEE7019B002B3FF4B6AE4FF02B
:10339000500383F31188BFF36F8FBFF34F8FFEE7A6
:1033A000FEF750FD002005B0BDE8F083036C002B54
:1033B0003FF49EAE4FF0500383F31188BFF36F8F3D
:1033C000BFF34F8FFEE704F1100001F0CBFE0028A1
:1033D000CCD0044B4FF080521A60BFF34F8FBFF335
:1033E0006F8FC3E704ED00E02DE9F04385B004469C
:1033F000019150B1036C8BB14FF0500383F31188EE
:10340000BFF36F8FBFF34F8FFEE74FF0500383F38F
:103410001188BFF36F8FBFF34F8FFEE702F026F8DE
:1034200018B9019B002B40F01A81FEF7F7FCA36B43
:10343000DFF8708200252E462F46002B40F0918049
:10344000019B002B00F0EA8016B902A801F032FFC0
:10345000FEF7F8FC01F004F9FEF7E0FC94F84430C4
:103460005BB2013308BF84F8447094F845305BB216
:10347000013308BF84F84570FEF7E4FC02A801A9F7
:1034800001F024FF00287AD1FEF7C8FCA36B002BC3
:1034900059D1FEF7D7FC2368002B00F0F98004F126
:1034A00024094846019901F081FDFEF7B7FC94F824
:1034B0004560F6B273B2002B04DC10E0013E16F05A
:1034C000FF060CD0636A53B1484601F04BFE00285A
:1034D000F4D0013E01F044FF16F0FF06F2D1FF23C5
:1034E00084F84530FEF7AEFCFEF798FC94F8446093
:1034F000F6B273B2002B15DD23699BB104F11009FC
:1035000005E0013E16F0FF060CD0236953B1484692
:1035100001F028FE0028F4D0013E01F021FF16F052
:10352000FF06F2D1FF2384F84430FEF78BFC01F054
:1035300067F978B94FF08053C8F80030BFF34F8F68
:10354000BFF36F8F06E0FEF77DFC2046FFF756F9CC
:1035500001F056F9FEF762FCA36B0126002B3FF445
:103560006FAF2268013BA36312B902F0B5F8606047
:103570002369002B7CD1FEF765FC012066E0FEF795
:103580004DFC94F84560F6B273B2002B15DD636A0A
:103590009BB104F1240905E0013E16F0FF060CD0B2
:1035A000636A53B1484601F0DDFD0028F4D0013EC6
:1035B00001F0D6FE16F0FF06F2D1FF2384F8453065
:1035C000FEF740FCFEF72AFC94F84460F6B273B2B2
:1035D000002B15DD23699BB104F1100905E0013EC4
:1035E00016F0FF060CD0236953B1484601F0BAFD2E
:1035F0000028F4D0013E01F0B3FE16F0FF06F2D130
:10360000FF2384F84430FEF71DFC01F0F9F8FEF7C3
:1036100005FCA36BEBB1FEF715FC9BE79DB14FF0EA
:10362000500383F31188BFF36F8FBFF34F8FFEE713
:10363000FEF7F4FB616A19B1236B1968C1F105014A
:10364000606801F0D9FFFEF7FDFB002005B0BDE882
:10365000F083FEF7F7FB002DEAD12846F6E74FF09E
:10366000500383F31188BFF36F8FBFF34F8FFEE7D3
:1036700004F1100001F076FD00283FF47CAF094B07
:103680004FF080521A60BFF34F8FBFF36F8F72E716
:10369000FEF7C4FB606801F0F9FE0546FEF7D2FBB9
:1036A000FDE600BF04ED00E070B504460E4690B1A3
:1036B000456801F0D5FE854208D031462046FFF727
:1036C00093FE10B1E3680133E36070BDE36801333A
:1036D000E360012070BD4FF0500383F31188BFF306
:1036E0006F8FBFF34F8FFEE72DE9F04385B004469F
:1036F0000E460192002800F04081002900F0598117
:1037000001F0B4FE002800F04181FEF787FBA36BB7
:10371000DFF8D88200252F46002B40F02281019B44
:10372000002B00F0408115B902A801F0C3FDFEF79F
:1037300089FB00F095FFFEF771FB94F844305BB213
:10374000013308BF84F8447094F845305BB201330C
:1037500008BF84F84570FEF775FB02A801A901F0C7
:10376000B5FD002840F0A880FEF758FBA36B002BA6
:1037700057D104F12409FEF765FB4846019901F091
:1037800015FCFEF74BFB94F84550EDB26BB2002BE5
:1037900004DC10E0013D15F0FF050CD0636A53B165
:1037A000484601F0DFFC0028F4D0013D01F0D8FDCF
:1037B00015F0FF05F2D1FF2384F84530FEF742FBF8
:1037C000FEF72CFB94F84450EDB26BB2002B15DDE4
:1037D00023699BB104F1100905E0013D15F0FF05D7
:1037E0000CD0236953B1484601F0BCFC0028F4D04A
:1037F000013D01F0B5FD15F0FF05F2D1FF2384F87E
:103800004430FEF71FFB00F0FBFF002840F0A280D1
:103810004FF08053C8F80030BFF34F8FBFF36F8F66
:1038200098E0FEF70FFBFEF7F9FA94F84550EDB279
:103830006BB2002B15DD636A9BB104F1240905E02E
:10384000013D15F0FF050CD0636A53B1484601F005
:1038500089FC0028F4D0013D01F082FD15F0FF0540
:10386000F2D1FF2384F84530FEF7ECFAFEF7D6FAE2
:1038700094F84450EDB26BB2002B15DD23699BB177
:1038800004F1100905E0013D15F0FF050CD0236996
:1038900053B1484601F066FC0028F4D0013D01F028
:1038A0005FFD15F0FF05F2D1FF2384F84430FEF7E9
:1038B000C9FA00F0A5FF4DE0FEF7B0FA94F84550C4
:1038C000EDB26BB2002B15DD636A9BB104F12409E4
:1038D00005E0013D15F0FF050CD0636A53B1484681
:1038E00001F040FC0028F4D0013D01F039FD15F055
:1038F000FF05F2D1FF2384F84530FEF7A3FAFEF767
:103900008DFA94F84450EDB26BB2002B15DD2369AB
:103910009BB104F1100905E0013D15F0FF050CD045
:10392000236953B1484601F01DFC0028F4D0013D45
:1039300001F016FD15F0FF05F2D1FF2384F84430A5
:10394000FEF780FA00F05CFFFEF768FAA36B53B352
:10395000FEF778FAFEF762FAA36B0125002B3FF41D
:10396000DEAE31462046E568FEF732FF636AE56069
:1039700063BBFEF767FA012018E04FF0500383F3B2
:103980001188BFF36F8FBFF34F8FFEE7019B002BB2
:103990003FF4BBAE4FF0500383F31188BFF36F8F3A
:1039A000BFF34F8FFEE7FEF74DFA002005B0BDE8EC
:1039B000F083036C002B3FF4A3AE4FF0500383F36E
:1039C0001188BFF36F8FBFF34F8FFEE704F1240020
:1039D00001F0C8FB0028CCD0044B4FF080521A6095
:1039E000BFF34F8FBFF36F8FC3E700BF04ED00E05D
:1039F0002DE9F04104460F46164698B169B3FEF72B
:103A0000E9FAEFF311884FF0500383F31188BFF305
:103A10006F8FBFF34F8FA56B6DB9284688F3118860
:103A2000BDE8F0814FF0500383F31188BFF36F8F2F
:103A3000BFF34F8FFEE794F8443039462046DFB29B
:103A4000FEF7C6FE7BB2013D0133A56311D07B1C9E
:103A5000DBB284F844300120E0E7036C002BCED0C9
:103A60004FF0500383F31188BFF36F8FBFF34F8F75
:103A7000FEE72369002BEED004F1100001F072FB89
:103A80000028E8D0002EE6D001203060C6E700BF55
:103A900070B504460D4658B1036C51B38BB94FF065
:103AA000500383F31188BFF36F8FBFF34F8FFEE78F
:103AB0004FF0500383F31188BFF36F8FBFF34F8F25
:103AC000FEE7FEF787FAEFF311864FF0500383F31A
:103AD0001188BFF36F8FBFF34F8FA06B30B12946B2
:103AE0002046E568FEF774FEE560012086F3118844
:103AF00070BD002BD3D04FF0500383F31188BFF378
:103B00006F8FBFF34F8FFEE710B5044630B1FEF75D
:103B100085F9A46BFEF796F9204610BD4FF05003CF
:103B200083F31188BFF36F8FBFF34F8FFEE700BFA2
:103B300010B5044640B1FEF771F9A36BE46BE41ACB
:103B4000FEF780F9204610BD4FF0500383F3118833
:103B5000BFF36F8FBFF34F8FFEE700BF08B1806BDD
:103B600070474FF0500383F31188BFF36F8FBFF39B
:103B70004F8FFEE710B448B3314B5A6890422ED0B5
:103B8000DA6890424BD05A69904250D0DA6990423C
:103B90002DD05A6A904232D0DA6A904237D05A6BAE
:103BA000904208D0DA6B904208BF072204D05DF83B
:103BB000044B02F011BB062203EBC204002143F8C0
:103BC000321061605DF8044B02F006BB4FF0500309
:103BD00083F31188BFF36F8FBFF34F8FFEE700228F
:103BE00003EBC204002143F832106160EAE70322CC
:103BF00003EBC204002143F832106160E2E70422C3
:103C000003EBC204002143F832106160DAE70522B9
:103C100003EBC204002143F832106160D2E70122B5
:103C200003EBC204002143F832106160CAE70222AC
:103C300003EBC204002143F832106160C2E700BF09
:103C400040090020806C70478164704790F84C00F8
:103C5000704700BF28B1806BD0F1010038BF002051
:103C600070474FF0500383F31188BFF36F8FBFF39A
:103C70004F8FFEE728B1826BC06B131A5842584130
:103C800070474FF0500383F31188BFF36F8FBFF37A
:103C90004F8FFEE7144B1A6810B48AB19A68BAB114
:103CA0001A69BAB19A69BAB11A6ABAB19A6ABAB15A
:103CB0001A6B22B19A6BAAB15DF8044B70470622C9
:103CC00003EBC20443F8321060605DF8044B7047A8
:103CD0000122F5E70222F3E70322F1E70422EFE7EE
:103CE0000522EDE70722EBE740090020164B5A6852
:103CF00082421CD0DA6882421BD05A6982421AD0B2
:103D0000DA69824219D05A6A824218D0DA6A82424B
:103D100017D05A6B824206D0DA6B824208BF072264
:103D200002D000207047062253F83200704700226C
:103D3000FAE70122F8E70222F6E70322F4E7042279
:103D4000F2E70522F0E700BF40090020174B5A6850
:103D500082421FD0DA6882421ED05A6982421DD048
:103D6000DA6982421CD05A6A82421BD0DA6A8242E5
:103D70001AD05A6B824205D0DA6B824208BF072202
:103D800001D07047062203EBC200002143F8321035
:103D9000416070470022F6E70122F4E70222F2E7D1
:103DA0000322F0E70422EEE70522ECE740090020B9
:103DB00070B504460E461546FEF730F894F84430C8
:103DC0005BB2013304BF002384F8443094F84530DB
:103DD0005BB2013304BF002384F84530FEF732F8AC
:103DE000A36B2BB931462A4604F1240001F05EF999
:103DF000FEF714F894F84550EDB26BB2002B15DDC8
:103E0000636A9BB104F1240605E06B1E13F0FF0505
:103E10000CD0636A53B1304601F0A4F90028F4D005
:103E200001F09EFA6B1E13F0FF05F2D1FF2384F818
:103E30004530FEF707F8FDF7F1FF94F84450EDB276
:103E40006BB2002B15DD23699BB104F1100605E070
:103E50006B1E13F0FF050CD0236953B1304601F0FF
:103E600081F90028F4D001F07BFA6B1E13F0FF05F6
:103E7000F2D1FF2384F84430BDE87040FDF7E2BF83
:103E80002DE98848184FDFF86880184EDFF86490F5
:103E9000DFF864B03D464FF0805A15E0FDF7BEFFF5
:103EA000D8F80C30DC68201DFEF744FC3368013B79
:103EB00033602B68013B2B60FDF7C4FF206B02F0E1
:103EC0008BF9204602F088F93B68002BE6D1D9F83F
:103ED0000030012B05D9CBF800A0BFF34F8FBFF303
:103EE0006F8FFDF709FEEFE7600A0020780A0020D7
:103EF0008C090020B809002004ED00E0074B1A6887
:103F0000126822B9064B4FF0FF321A6070471A68E8
:103F1000034BD268D26852681A6070478409002047
:103F2000240A0020F8B51C4B1C4D1E682B68044663
:103F3000181D0F46FEF7FEFB48B92A68184BD26AD7
:103F40001968012000FA02F221EA02021A60631CD9
:103F500019D034442B68114A5C60A6420BD8114B2F
:103F6000186811680431FEF7CBFB0F4B1A689442B6
:103F700038BF1C60F8BD0D4B18681168BDE8F840EB
:103F80000431FEF7BDBB002FE3D029680848043197
:103F9000BDE8F840FEF7A6BB2C0A0020200A00204E
:103FA0007C0A002084090020240A0020300A002016
:103FB000A00900202DE9F84F9700824638460E46AA
:103FC0009946DDF82C8002F0D7F80446002800F06E
:103FD0008F80602002F0D0F80546002800F0858030
:103FE00004633A462046A5210FF0F4FC2B6B043FF6
:103FF0003B4423F0070B00242B19325D83F8342057
:10400000375D01340FB1142CF6D10A9F0024042F20
:1040100028BF04272E1DEF622F65304685F84740E4
:104020006C65FEF75BFBC7F1050705F11800FEF7AD
:1040300055FBAC65AF612D6185F85C406D625846FB
:1040400051464A46FDF7A6FE2860B8F1000F01D0A0
:10405000C8F80050FDF7E2FE3F4B404C1A680132B1
:104060001A602268002A47D0DFF81891D9F800308A
:104070007BB3EB6ADFF810A1394F3A4A3968106810
:104080004FF0010801EB080E08FA03FC03EB830371
:104090003146C5F848E04CEA00060AEB8300C7F851
:1040A00000E01660FEF71EFBFDF7CCFED9F80030ED
:1040B000C3B12268EB6AD26A9A4213D22A4B4FF0FC
:1040C00080521A60BFF34F8FBFF36F8F4046BDE839
:1040D000F88F2268EB6AD26ADFF8ACA09A4298BFE8
:1040E0002560C9E74046BDE8F88F204602F074F825
:1040F0004FF0FF30BDE8F88F25601B68012B05D01D
:10410000EB6ADFF884A0DFF87C90B5E7DFF878A0F1
:1041100057460AF1640838461437FEF7D3FA474584
:10412000F9D1DFF86880114FDFF858904046FEF76C
:10413000C9FA3846FEF7C6FA0D48FEF7C3FA0D482D
:10414000FEF7C0FA0C48FEF7BDFA0C4B0C4AC3F858
:104150000080EB6A17608FE7780A0020200A0020B1
:10416000480A00207C0A002004ED00E0340A002008
:10417000640A00208C090020A00900208409002086
:10418000300A002088090020B80900204C0A0020CD
:1041900070B50446354DFDF741FE002C45D0261D77
:1041A0003046FEF7C7FA38B9E36A314903EB8302B8
:1041B00092008A58002A2FD0A36A1BB104F118007C
:1041C000FEF7B8FA2B4B29681A688C4202F10102FB
:1041D0001A602CD0284B206B1A68013A1A6001F043
:1041E000FBFF204601F0F8FF244B1A68126872B1F9
:1041F0001A68234BD268D26852681A60FDF722FE13
:10420000204B1B6813B12B689C4219D070BD1C4B0E
:104210004FF0FF321A60F1E71B4A0120116800FAE3
:1042200003F321EA03031360C6E72C68B7E73146BE
:104230001648FEF757FA164B1A6801321A60DDE786
:10424000144B1B6843B14FF0500383F31188BFF345
:104250006F8FBFF34F8FFEE70F4B4FF080521A6006
:10426000BFF34F8FBFF36F8F70BD00BF200A0020D8
:10427000B8090020480A0020780A0020840900209C
:10428000240A0020880900207C0A00208C090020D4
:10429000600A00201C0A002004ED00E038B5054645
:1042A00008B3184B1B6898421BD0FDF7B7FD6C692B
:1042B000FDF7C8FD144B1B689C420ED0134B1B68C6
:1042C0009C420AD0124B9C4216D0124B9C4206D004
:1042D000002C14BF0120042038BD022038BD04206A
:1042E00038BD002038BD4FF0500383F31188BFF371
:1042F0006F8FBFF34F8FFEE7AB6A002B14BF022016
:10430000032038BD200A002084090020300A002044
:10431000A00900208C09002010B50446FDF77EFDA1
:1043200024B1E46AFDF78EFD204610BD034B1C68E6
:10433000E46AFDF787FD204610BD00BF200A00207B
:1043400010B50446FDF746FEEFF311834FF050021F
:1043500082F31188BFF36F8FBFF34F8F1CB1E06AF8
:1043600083F3118810BD034A1468E06A83F311884F
:1043700010BD00BF200A002004292DE9F0410D46A0
:10438000044608D94FF0500383F31188BFF36F8FB1
:10439000BFF34F8FFEE7FDF741FD002C4ED0236D9C
:1043A0009D4247D0284A09D911688C4249D01268E9
:1043B000D76ABD4234BF0027012703E01768E21B1C
:1043C00057425741E66A2565B342A36908BFE562D3
:1043D000002BA4BFC5F10505A5611C4D636906EB63
:1043E000860205EB820293421BD104F10408404689
:1043F000FEF7A0F9164B30B91A68012101FA06F64A
:1044000022EA06021A60E26A1C68012602EB8200B8
:10441000964046EA0402414605EB80001A60FEF72A
:1044200061F93FB10B4B4FF080521A60BFF34F8FD1
:10443000BFF36F8FBDE8F041FDF704BD024B1C6870
:10444000ADE70027BEE700BF200A0020B809002022
:104450007C0A002004ED00E0F8B5044670B1224D5E
:104460002B68984209D0FDF7D9FC204A6369934232
:104470000DD0BDE8F840FDF7E5BCF8BD4FF05003A6
:1044800083F31188BFF36F8FBFF34F8FFEE7A36AEB
:10449000174A9342EDD0002BEBD1261D3046FEF794
:1044A00049F9144AE36A176813484FF0010E0EFAEF
:1044B00003FE03EB8303314600EB83004EEA07065D
:1044C0001660FEF70FF92B68E26ADB6A9A42D0D3D6
:1044D0000A4B4FF080521A60BFF34F8FBFF36F8FBC
:1044E000BDE8F840FDF7AEBC200A0020A00900207E
:1044F000640A00207C0A0020B809002004ED00E0D6
:10450000F8B50446A0B1FDF765FDEFF311874FF054
:10451000500383F31188BFF36F8FBFF34F8F224A8D
:10452000636993420DD0002587F311882846F8BDB2
:104530004FF0500383F31188BFF36F8FBFF34F8F9A
:10454000FEE7A56A19488542EDD0002DEBD1184B46
:104550001B680BBB174AE36A1268D56A261DAB427B
:10456000304634BF00250125FEF7E4F8124AE36A1D
:10457000124814684FF0010E0EFA03FE03EB83039A
:104580004EEA0404314600EB83001460FEF7AAF8FB
:1045900087F311882846F8BD04F11801FEF7A2F848
:1045A00087F311882846F8BDA0090020640A00207E
:1045B0001C0A0020200A00207C0A0020B8090020E4
:1045C00030B583B00024184A01920094234617485E
:1045D00017498222FFF7EEFC01280CD0013001D0F0
:1045E00003B030BD4FF0500383F31188BFF36F8FDA
:1045F000BFF34F8FFEE701F045FB0128EED14FF0EE
:10460000500383F31188BFF36F8FBFF34F8F0949B6
:10461000094A0A4B4FF0FF350D6010601C6003B073
:10462000BDE83040FDF780BC280A0020813E00082C
:10463000089B0108240A0020880900202C0A002079
:104640004FF0500383F31188BFF36F8FBFF34F8F89
:10465000024B00221A60FDF7C3BB00BF880900208F
:10466000024B1A6801321A60704700BF1C0A002012
:10467000014B1868704700BF2C0A002008B5FDF7F1
:10468000A9FC014B186808BD2C0A0020014B1868D2
:10469000704700BF780A002008B134307047064BDD
:1046A00018680028F9D14FF0500383F31188BFF345
:1046B0006F8FBFF34F8FFEE7200A00202DE9F84FE0
:1046C000444B1B68002B79D1434B1C6801341C60A0
:1046D000BCB9424B1A68126842B14FF0500383F3E1
:1046E0001188BFF36F8FBFF34F8FFEE73C49186807
:1046F0003C4A0D681D600860136801331360FFF7C2
:10470000FDFB394D394E2B68394F9C423CD3DFF8C5
:10471000EC904FF0000B2EE0304B1A68D268D2F8C4
:104720000C80D8F8041008F1040A8C4250464ED38D
:10473000FEF700F8D8F8281008F1180009B1FDF7C5
:10474000F9FFD8F82C10D9F80030012202FA01FC48
:1047500001EB810006EB800051464CEA0303C9F8E7
:104760000030FDF7BFFF3868D8F82C10C26A9142BC
:1047700028BF4FF0010B194B1A681268002ACBD1E1
:104780004FF0FF322A6001E04FF0000B3A68194801
:10479000D26A02EB82029200B1580268022928BF55
:1047A0004FF0010B0AB9FDF763FF134A1268002AA4
:1047B00018BF4FF0010B5846BDE8F88F0D4B1A6833
:1047C00001321A604FF0000BFDF752FFEDE7296050
:1047D000DCE700BF1C0A00202C0A0020840900200E
:1047E000300A002080090020240A0020B809002097
:1047F000200A0020B4090020800A00207C0A002042
:104800002DE9F84F324C236843B94FF0500383F33E
:104810001188BFF36F8FBFF34F8FFEE7FDF7FEFAEE
:104820002368013B23602468002C4BD1294B1B6873
:10483000002B47D0DFF8B490274D284EDFF8B0A00A
:10484000CB4620E0DBF80C30DC6804F1040804F10E
:104850001800FDF76FFF4046FDF76CFFE36A326812
:1048600007FA03FE03EB830041464EEA02030AEB1C
:1048700080003360FDF736FF194AE36A1268D26A96
:10488000934228BF2F60D9F800300127002BD9D1DF
:104890000CB1FFF733FB134E34683CB10127FFF72F
:1048A0000DFF00B12F60013CF9D134602B684BB192
:1048B0000D4B4FF080521A60BFF34F8FBFF36F8FD5
:1048C000012400E00024FDF7BDFA2046BDE8F88F82
:1048D0001C0A0020780A0020800A00207C0A0020A0
:1048E000200A0020B409002004ED00E0640A002042
:1048F000B809002038B5A8B141B94FF0500383F38F
:104900001188BFF36F8FBFF34F8FFEE71C4A136808
:104910008BB14FF0500383F31188BFF36F8FBFF358
:104920004F8FFEE74FF0500383F31188BFF36F8F73
:10493000BFF34F8FFEE71568124B04680135156011
:104940001A68A24204EB010314D29C4216D99A427F
:1049500014D203600021981AFFF7E4FAFFF750FF22
:1049600058B9094B4FF080521A60BFF34F8FBFF315
:104970006F8F38BD9C42ECD8E9E738BD0360EDE7A6
:104980001C0A00202C0A002004ED00E008B558B1F4
:104990000F4B196889B14FF0500383F31188BFF3AF
:1049A0006F8FBFF34F8FFEE70A4B4FF080521A60B4
:1049B000BFF34F8FBFF36F8F08BD1A6801321A60C3
:1049C000FFF7B0FAFFF71CFF0028EDD008BD00BFCD
:1049D0001C0A002004ED00E02DE9F04F9C4D9D4B9A
:1049E0002C6801342C601B6885B08B4201900292C8
:1049F00000F29180DFF87CC2DFF87CE24FF0000A21
:104A00000CF10806D146DCF80050002D2ED1924B57
:104A1000143E9E42AA44ACF1140CF4D18F4B1E6894
:104A20003768002F40F0C7808D4B1E683368BA444A
:104A3000002B78D19E468B4F3E680EEB0A08002E65
:104A400040F01C81884F396846440396002940F0A5
:104A500064818946039B029D99440DB100232B601C
:104A6000FFF7CEFE484605B0BDE8F08F56F8043C8F
:104A70007E4F596846F8041CB14208BF7168019D19
:104A80007B4A08BF46F8041CC7EB0C080AEBCA03B4
:104A9000CF68009705EB830390440025496846F8EA
:104AA000041CB14204BF58F84C1C46F8041CCC68E6
:104AB00074B3224602F134001A605860D06A18615B
:104AC000106BD861976CDEF800B09F60176D5F6166
:104AD000B2EB0B0218BF0122C3F818901A730278C8
:104AE000A52A4FF000020AD1009F10F801BFBBF1C8
:104AF000A50F02F10102F8D00097C2F38F021A84C9
:104B0000009AA24205F1010503F12403C6D17EE714
:104B1000DEF80020CEE7FFF773FE4FF000094846AD
:104B200005B0BDE8F08F7368DFF84CB15C68746065
:104B300006F10807BC4208BF6468019BD4F80C80EA
:104B40000AEBCA004FF0000E03EB8000F4466468E5
:104B50007460A74204BFF4687460E168002973D0F0
:104B60000B4603F1340203604260DA6A02611A6B99
:104B7000C2619D6CDBF8009085601D6D45614B4501
:104B800014BF02230023C0F818C003731378A52BA9
:104B90004FF0000307D112F8015FA52D03F10103C7
:104BA000F9D0C3F38F03884503840EF1010E00F1A1
:104BB0002400CCD13FE77368019D5C68746006F106
:104BC000080E744508BF6468DFF8ACB0D4F80C80F8
:104BD0000AEBCA00002705EB8000BC4664687460DD
:104BE000A64504BFF4687460E16851B30B4603F155
:104BF000340203604260DA6A02611A6BC2619D6C22
:104C0000DBF8009085601D6D45614B4514BF0223A4
:104C10000023C0F818C003731378A52B4FF00003CE
:104C200007D112F8015FA52D03F10103F9D0C3F3F9
:104C30008F038845038407F1010700F12400CDD1DB
:104C4000F2E6DBF80030D2E7DBF8003089E700BF9E
:104C50001C0A0020780A0020AC09002084090020EA
:104C6000300A00208C090020A0090020B80900208B
:104C7000100A0020080A0020200A00207B685A49F8
:104C80005C687C6007F1080E744508BFFC68D1F8C9
:104C90000CA0019BD4F80C90DFF858B108EBC800C9
:104CA000002603EB8000B446554664684E4F7445B9
:104CB0007C6004BF2C467D60E16859B30B4603F16C
:104CC000340203604260DA6A02611A6BC2619F6C4F
:104CD000DBF800A087601F6D4761534514BF0423B4
:104CE0000023C0F818C003731378A52B4FF00003FE
:104CF00008D112F801AFBAF1A50F03F10103F8D002
:104D0000C3F38F038945038406F1010600F12400F3
:104D1000CBD197E6DBF80030D1E77B68039A5B687C
:104D20007B6007F108018B4208BFFB68DFF8C4B065
:104D3000DD680095019D02EBC2044FF0000905EB10
:104D400084044FF003084D465B6828497B608B4222
:104D500004BF4B6841F8043CDE68002E40D0B246E8
:104D60000AF13403C4F800A06360DAF82C30236140
:104D7000DAF83030E361DAF84830DBF80020A3607D
:104D8000DAF8503063619245A56127D0184B84F85A
:104D90000C801A681649DAF8283001320A600BB123
:104DA00002232373FFF72CFDDAF830201378A52BAC
:104DB0004FF0000307D112F8011FA52903F10103E9
:104DC000F9D0C3F38F03009A2384B24209F1010999
:104DD00004F124043FF43EAE7B68B5E72573E3E7B6
:104DE000DBF800A0BCE700BF8C090020A809002068
:104DF0001C0A0020200A0020234B1B6810B5002B42
:104E000034D1224A224C136023681B6B1A68B2F11A
:104E1000A53F03D15A68B2F1A53F2BD02068216885
:104E20003431FDF723FC1B4B1B68B3FA83F3DBB271
:104E3000C3F11F0303EB83039B00174AD15841B909
:104E40004FF0500383F31188BFF36F8FBFF34F8F81
:104E5000FEE71A4402F1080153685B6853608B4215
:104E600004BF5B685360DB68236010BD074B012201
:104E70001A6010BD9A68B2F1A53FCFD1DB68B3F1DB
:104E8000A53FCBD1CFE700BF1C0A0020800A00203D
:104E9000200A00207C0A0020B809002070B50446D2
:104EA000384DFCF7BBFF002C5ED0261D3046FDF7C9
:104EB00041FC30B9E36A344903EB830292008A581B
:104EC000D2B1A36A1BB104F11800FDF733FC3146DF
:104ED0002E482F4EFDF706FC94F85C30012B04BFE2
:104EE000002384F85C30FCF7ADFF33686BB92B68A6
:104EF000244A9C4219D070BD264A0120116800FA4C
:104F000003F321EA03031360DBE7FCF787FF224B7F
:104F10001A6812680ABB214B4FF0FF321A60FCF787
:104F200091FF2B68174A9C42E5D133685BB11C4B5B
:104F30001B68EBB14FF0500383F31188BFF36F8F01
:104F4000BFF34F8FFEE71148164900680968884291
:104F50000CD0BDE87040FFF74FBF1A680F4BD26806
:104F6000D26852681A60DAE72C689EE7136070BD59
:104F70000D4B4FF080521A60BFF34F8FBFF36F8F0E
:104F800070BD00BF200A0020B8090020A009002041
:104F9000880900207C0A002084090020240A0020BF
:104FA0001C0A0020780A002004ED00E070B50D46D0
:104FB00048B3214C21681831FDF7A2FB1F4B1E6836
:104FC00020680430FDF7B6FB48B922681C4BD16A53
:104FD0001A68012000FA01F122EA01021A606B1C32
:104FE0001AD02268144BAC19A64254601BD8154A3B
:104FF000106819680431FDF783FB134B1A6894425B
:1050000038BF1C6070BD4FF0500383F31188BFF3AD
:105010006F8FBFF34F8FFEE721680C480431BDE866
:105020007040FDF75FBB0A4A10681968BDE8704020
:105030000431FDF765BB00BF200A00202C0A0020C8
:105040007C0A002084090020240A0020A0090020F6
:10505000300A002010B51446D8B1124B1B6843B972
:105060004FF0500383F31188BFF36F8FBFF34F8F5F
:10507000FEE70D4B1A681B6841F00041916103F196
:105080001801FDF72FFB20460121BDE81040FEF777
:1050900049BF4FF0500383F31188BFF36F8FBFF305
:1050A0004F8FFEE71C0A0020200A0020F8B50D46AD
:1050B000164600282ED0244C21681831FDF712FB2B
:1050C000224B1F682068002E00F1040018BF4FF02B
:1050D000FF35FDF72FFB48B922681D4BD16A1A68CE
:1050E000012000FA01F122EA01021A606B1C22D0B1
:1050F0003D442268144B5560AF4214D8154A1068DD
:1051000019680431FDF7FCFA134B1A68954238BF51
:105110001D60F8BD4FF0500383F31188BFF36F8F0C
:10512000BFF34F8FFEE70D4A10681968BDE8F840DD
:105130000431FDF7E5BA002EDAD0216808480431C1
:10514000BDE8F840FDF7CEBA200A00202C0A002066
:105150007C0A002084090020240A0020300A002054
:10516000A0090020F8B5C368DC6834B304F1180561
:105170002846FDF7DFFA184B1B683BBB251D284668
:10518000FDF7D8FA154AE36A1668154801279F40CB
:1051900003EB8303294600EB830047EA060515600D
:1051A000FDF7A0FA0F4BE26A1B68DB6A9A4283BFE5
:1051B0000D4B012018600020F8BD4FF0500383F321
:1051C0001188BFF36F8FBFF34F8FFEE72946074863
:1051D000FDF788FAE6E700BF1C0A00207C0A0020E1
:1051E000B8090020200A0020800A0020640A00205C
:1051F000F8B51D4B1A6842B94FF0500383F311887C
:10520000BFF36F8FBFF34F8FFEE7C46841F00042DA
:105210000260FCB1251DFDF78DFA2846FDF78AFADC
:10522000124AE36A17681248012606FA03FE03EBE6
:105230008303294600EB83004EEA07051560FDF75E
:1052400051FA0C4BE26A1B68DB6A9A4284BF0A4B34
:105250001E60F8BD4FF0500383F31188BFF36F8FCA
:10526000BFF34F8FFEE700BF1C0A00207C0A00201E
:10527000B8090020200A0020800A002010B504464A
:1052800058B1FCF7CBFD094A094B12681B6884E84A
:105290000C00BDE81040FCF7D5BD4FF0500383F380
:1052A0001188BFF36F8FBFF34F8FFEE78009002097
:1052B0002C0A0020034A044B12681B6880E80C008B
:1052C000704700BF800900202C0A0020F8B5044672
:1052D0000D4640B3F1B1FCF7A1FD2B681E4A606892
:1052E0001668591C33D01D492768D1F800E077456E
:1052F00006D0864204D30125FCF7A4FD2846F8BD5C
:10530000301A984218D300232B600125FCF79AFD30
:105310002846F8BD4FF0500383F31188BFF36F8F19
:10532000BFF34F8FFEE74FF0500383F31188BFF3B5
:105330006F8FBFF34F8FFEE7096812681B1A2B604F
:10534000002584E80600FCF77DFD2846F8BD002511
:10535000FCF778FD2846F8BD2C0A002080090020C3
:10536000014B01221A607047800A002000B1C06C16
:10537000704700BF00B1C164704700BFF8B50D466B
:1053800004461746304900284CD0E26A2A61226B55
:10539000EA61226DA66C6A6104F134000022052BDB
:1053A0002C606860AE60AA6123D009688C4237D057
:1053B000032B2B7312D07FB1226B1378A52B4FF0E8
:1053C000000307D112F8010FA52803F10103F9D05A
:1053D000C3F38F032B84F8BD2F84F8BD1B4BA26A47
:1053E0001968013119600AB102232B73FFF708FA1B
:1053F000E1E70B689C4213D0FCF710FD6669FCF7EF
:1054000021FD134B1B689E4214D0124B1B689E4219
:1054100010D0114B9E4210D0104B9E4204D104225A
:105420002A73C8E70C68B0E7002E14BF01220422DB
:105430002A73C0E702222A73BDE7A36A002B14BFB8
:10544000022203222A73B6E7200A00201C0A002049
:1054500084090020300A0020A00900208C090020C7
:10546000014B1868704700BF200A0020054B1B68DD
:1054700033B1054B1B68002B14BF0020022070477E
:1054800001207047880900201C0A00202DE9F04106
:10549000044620B3284DC36A2A68D26A934215D2C3
:1054A0008269002A04DB2A68D26AC2F1050282619D
:1054B000224E626903EB830306EB83039A4210D00A
:1054C0002B68DB6AE3620120BDE8F0812B68006D88
:1054D000DB6A98422CBF00200120BDE8F081BDE8C6
:1054E000F08104F104084046FDF724F908BBE36AA3
:1054F00003EB83029200B258DAB9114A0120116815
:1055000000FA03F321EA030313602B681568DB6AD2
:10551000E362012404FA03F703EB830006EB800047
:1055200047EA050341461360FDF7DCF82046BDE875
:10553000F081034AE9E700BF200A0020B8090020F3
:105540007C0A0020F8B50446F0B1284B1B6898424D
:1055500008D04FF0500383F31188BFF36F8FBFF370
:105560004F8FFEE7436D43B94FF0500383F311882B
:10557000BFF36F8FBFF34F8FFEE7C16A026D013B30
:105580009142436500D00BB10020F8BD071D38469D
:10559000FDF7D0F8B8B1164D164B226DD3F800E0E8
:1055A000E262012606FA02FCC2F1050002EB820269
:1055B0003946A0614CEA0E0705EB82001F60FDF73B
:1055C00091F83046F8BDE26A094D02EB82039B0078
:1055D000EB580BB1074BE0E7064B0120196800FAC6
:1055E00002F221EA02021A60D7E700BF200A002077
:1055F000B80900207C0A0020F8B5044698B1406D37
:1056000040B94FF0500383F31188BFF36F8FBFF39E
:105610004F8FFEE7226DE36A914228BF0A4693420C
:1056200001D0012800D0F8BD224909688C4226D05B
:10563000A169E2620029A8BFC2F105021E4DA8BF00
:10564000A26103EB8303626905EB83039A42EAD10B
:10565000271D3846FDF76EF8E36AC8B10124174AE2
:105660009C409E00D2F800C0F01844EA0C0405EB00
:10567000800039461460BDE8F840FDF733B84FF0BC
:10568000500383F31188BFF36F8FBFF34F8FFEE793
:105690009E00F2189200AA581AB101249C40074AB1
:1056A000E0E7064A012411689C4021EA04011160E8
:1056B000D8E700BF200A0020B80900207C0A00209B
:1056C000044B19681A681B688869DB6AC3F1050313
:1056D00093617047200A0020044B1A681AB11A68B7
:1056E000516D013151651868704700BF200A0020D4
:1056F0002DE9F0412E4C06460D46FCF78FFB236842
:105700009B6D23B92368012783F85C70BDB9FCF752
:1057100099FBFCF783FB2368254A9D6D1DB1136837
:1057200056B96A1E9A652368002283F85C20FCF74C
:1057300089FB2846BDE8F08100229A65F3E71D4BFE
:10574000D3F8008020680430FCF7F4FF38B92268F1
:10575000194BD16A1A688F4022EA07071F606B1C39
:1057600020D045442368124A5D60A84513D8134BE6
:10577000186811680431FCF7C3FF114B1A68954291
:1057800038BF1D600F4B4FF080521A60BFF34F8F30
:10579000BFF36F8FBBE70C4B186811680431FCF73F
:1057A000AFFFEFE7216809480431FCF79BFFE9E709
:1057B000200A00202C0A00207C0A002084090020F6
:1057C000240A002004ED00E0300A0020A009002097
:1057D0002DE9F843374C1E4680460F461546FCF728
:1057E0001DFB236893F85C30022B0AD02268936D6E
:1057F00023EA0803936523684FF0010883F85C806F
:10580000F6B9FCF71FFBFCF709FB15B123689B6D8C
:105810002B602368274A93F85C30022B09D00025BF
:105820002368002283F85C20FCF70CFB2846BDE8C7
:10583000F88313689A6D22EA07079F650125EFE751
:105840001D4BD3F8009020680430FCF773FF40B97B
:1058500022681A4BD26A196808FA02F821EA08028B
:105860001A60731C19D04E442368124A5E60B14519
:1058700019D8134B186811680431FCF741FF114B1C
:105880001A68964238BF1E600F4B4FF080521A6064
:10589000BFF34F8FBFF36F8FB3E721680B4804311D
:1058A000FCF720FFF0E70A4B186811680431FCF799
:1058B00027FFE9E7200A00202C0A00207C0A0020AC
:1058C00084090020240A002004ED00E0A009002043
:1058D000300A0020F8B504460E4617461D46C8B1EA
:1058E000FCF79CFA0DB1A16D296094F85C5002227E
:1058F0007B1EEDB284F85C20032B04D8DFE803F0B4
:105900003632023AA665012D0DD00125FCF79AFA30
:105910002846F8BD4FF0500383F31188BFF36F8F13
:10592000BFF34F8FFEE7261D3046FCF703FF1E4AEC
:10593000E36A17681D4805FA03FE03EB830331464B
:1059400000EB83004EEA07061660FCF7CBFEA36A65
:10595000BBB14FF0500383F31188BFF36F8FBFF3D8
:105960004F8FFEE7A36D0133A365CCE7A36D1E4304
:10597000A665C8E7022DC5D10025FCF763FA2846C5
:10598000F8BD0B4BE26A1B68DB6A9A42BDD9094B32
:105990004FF080521A60BFF34F8FBFF36F8FFCF749
:1059A00051FA2846F8BD00BF7C0A0020B809002043
:1059B000200A002004ED00E02DE9F843089F04468A
:1059C0000D4691461E4620B3FCF704FBEFF3118809
:1059D0004FF0500383F31188BFF36F8FBFF34F8FE6
:1059E0000EB1A16D316094F85C60022209F1FF33C1
:1059F000F6B284F85C20032B04D8DFE803F0221E03
:105A00000226A565012E0DD0012088F31188BDE87E
:105A1000F8834FF0500383F31188BFF36F8FBFF308
:105A20004F8FFEE7A36ABBB14FF0500383F3118899
:105A3000BFF36F8FBFF34F8FFEE7A36D0133A365F5
:105A4000E0E7A36D1D43A565DCE7022ED9D1002058
:105A500088F31188BDE8F883184B1B6803BB251D2C
:105A60002846FCF767FE164AE36AD2F800E01548BC
:105A70009E4003EB8303294600EB830046EA0E05B4
:105A80001560FCF72FFE104BE26A1B68DB6A9A4236
:105A9000BAD95FB10120386088F31188BDE8F88376
:105AA0000A4804F11801FCF71DFEECE7084B012041
:105AB000186088F31188BDE8F88300BF1C0A002035
:105AC0007C0A0020B8090020200A0020640A002077
:105AD000800A00202DE9F04104460D46D0B1FCF7C4
