:020000040800F2
:1000000000000320A5100008F1100008F1100008FE
:10001000F1100008F1100008F110000800000000C5
:10002000000000000000000000000000F1070008D0
:10003000F110000800000000B50800080D090008D4
:10004000F1100008F1100008F1100008F11000088C
:10005000F1100008F1100008F1100008F11000087C
:10006000F1100008F1100008F1100008F11000086C
:10007000F1100008F1100008F1100008F11000085C
:10008000F1100008F1100008F1100008F11000084C
:10009000F1100008F1100008F1100008F11000083C
:1000A000F1100008F1100008F1100008F11000082C
:1000B000090B0008F1100008F1100008F110000809
:1000C000F1100008F1100008F1100008F11000080C
:1000D000F1100008650F0008F1100008F110000889
:1000E000F1100008F1100008F1100008F1100008EC
:1000F000F1100008F1100008F1100008F1100008DC
:10010000F1100008F1100008F1100008F1100008CB
:10011000F1100008F1100008F1100008F1100008BB
:10012000F1100008F1100008F1100008F1100008AB
:10013000F1100008F1100008F1100008F11000089B
:10014000F1100008F1100008F1100008F11000088B
:10015000F1100008F1100008F1100008F11000087B
:10016000F1100008F1100008F1100008F11000086B
:10017000F1100008F1100008F1100008F11000085B
:10018000F1100008F1100008F1100008F11000084B
:10019000F1100008F1100008F1100008F11000083B
:0C01A000A10F0008F1100008F110000889
:1001AC00E05F0108000000205800002058000020EB
:1001BC0070300120844641EA000313F003036DD133
:1001CC00403A41D351F8043B40F8043B51F8043B0E
:1001DC0040F8043B51F8043B40F8043B51F8043B15
:1001EC0040F8043B51F8043B40F8043B51F8043B05
:1001FC0040F8043B51F8043B40F8043B51F8043BF5
:10020C0040F8043B51F8043B40F8043B51F8043BE4
:10021C0040F8043B51F8043B40F8043B51F8043BD4
:10022C0040F8043B51F8043B40F8043B51F8043BC4
:10023C0040F8043B51F8043B40F8043B51F8043BB4
:10024C0040F8043B403ABDD2303211D351F8043B54
:10025C0040F8043B51F8043B40F8043B51F8043B94
:10026C0040F8043B51F8043B40F8043B103AEDD203
:10027C000C3205D351F8043B40F8043B043AF9D254
:10028C00043208D0D2071CBF11F8013B00F8013B27
:10029C0001D30B8803806046704700BF082A13D334
:1002AC008B078DD010F003038AD0C3F10403D21A4C
:1002BC00DB071CBF11F8013B00F8013B80D331F880
:1002CC00023B20F8023B7BE7043AD9D3013A11F800
:1002DC00013B00F8013BF9D20B7803704B7843706B
:1002EC008B7883706046704710B582B002F0D2FEF6
:1002FC000F4C019000238DF800308DF801300D4823
:10030C0007F098FA03090C488DF8003007F092FAC0
:10031C006FEA101369468DF80130642220680023BF
:10032C0001F0BEF901A8142102F0F6FFE7E700BFC7
:10033C005C000020002001400022014010B582B07A
:10034C0000F052FE02210022642000F0FBFF0E4B55
:10035C000E491860002404238DE818004FF47A72BB
:10036C0023460B4802F038FB03222346009209492E
:10037C0001944FF47A72084802F02EFB02F032FE20
:10038C00204602B010BD00BF5C000020982401087C
:10039C0031040008A4240108F5020008F0B5204C33
:1003AC0083B020684FF6FF710DF0BEFE4FF478431A
:1003BC0020680093322150221E230EF0BBFA4FF618
:1003CC00FF731F25206800937827322150221923B0
:1003DC000EF0B0FA28262068009701958C21822215
:1003EC00BE230DF075FD206801953A460096BE219E
:1003FC00A0230DF06DFD82232068009332460195F9
:10040C00A0218C230DF064FD32234FF48061019107
:10041C00206800931A46F0210DF09AFE03B0F0BD4F
:10042C00402E012030B583B002F034FE02AC0A4DF0
:10043C0044F8040D09480DF039FBFFF7AFFF4FF0FE
:10044C00FF31286801F0E2FC00F000FE2046142188
:10045C0002F062FFF1E700BF60000020B424010845
:10046C0030B583B0C0F30725ADF80400C4B2AA20A0
:10047C0000F0ACFD204600F0A9FD6C40284600F0D1
:10048C00A5FD204600F0A2FD552003B0BDE830408C
:10049C0000F09CBD70B586B000241E4D1E4E8DF82C
:1004AC0008408DF80940286869464FF0FF3201F08A
:1004BC0025FB042CF7D8DFE804F01C1313130300FE
:1004CC009DF800209DF811309DF81240552A84EAC1
:1004DC00030113D09DF813208A420FD00024E2E7C9
:1004EC009DF8002006AB2344013403F8082CE4B239
:1004FC00D9E79DF80020AA2AD5D1F3E78DF808306A
:10050C0030688DF80940002302A964221C4601F0D2
:10051C00C7F8C8E7580000205C000020FEE700BFC9
:10052C00FEE700BF8289B42A70B51ED0B2F5877F72
:10053C0015D05A2A0CD0858DC48D808F09F0A6FA5F
:10054C002846214601220023BDE8704009F034BD45
:10055C00848DC58DC4F59F740134A4B2EDE7C58DAF
:10056C00848DC5F1EF05ADB2E7E7858DC48DC5F57A
:10057C009F750135C4F1EF04ADB2A4B2DDE700BF45
:10058C0010B50446808F09F081FAA389B42B23D0CF
:10059C00B3F5877F15D05A2B07D0A08DE18D228E15
:1005AC00638EBDE810400AF043B9238EA18DE08D17
:1005BC00628E1944C1F5A07189B2BDE810400AF0F1
:1005CC0037B9E08DA18D628E238EC0F1EF0080B221
:1005DC00BDE810400AF02CB9A08DE18D228E638EFF
:1005EC00C0F59F700130C1F1EF0180B289B2BDE856
:1005FC0010400AF01DB900BF10B5808F09F046FA03
:10060C0000200146F0224FF4A073BDE810400AF020
:10061C000FB900BF70B500254561856104460CF02B
:10062C0011FE09F099F91248012105F063FE012130
:10063C00104805F05FFE012005F0DEFD012005F0FD
:10064C0099FD284609F0F8F9FF2009F031FA6422E7
:10065C0032234FF4A076F0255A200321E273237441
:10066C00A08126816581A1734FF0FF3070BD00BF62
:10067C00846801400469014070B50F4C82B0402081
:10068C00012106F083FA00250122022320464FF4B3
:10069C00C04669468DF804208DF8053000968DF81B
:1006AC0006508DF8075006F011F8044B044A1C60F4
:1006BC0015805C6002B070BD001802406400002020
:1006CC006C000020012838B504460D4600D938BD11
:1006DC0000F0B6F800350849084A094B51F82400D7
:1006EC0032F8141018BF01252A461D5506F080F863
:1006FC00BDE8384000F0B8B864000020242501089B
:10070C006C000020012838B5044600D938BD00F033
:10071C0097F80A4B0A491D5D0A4A51F8240032F831
:10072C001410D5F1010538BF00252A461D5506F0D9
:10073C005FF8BDE8384000F097B800BF6C000020AF
:10074C00640000202425010801289ABF014B185C85
:10075C00002070476C0000200A4B1B68013308D046
:10076C004FF0500383F31188BFF36F8FBFF34F8F9C
:10077C00FEE74FF0500383F31188BFF36F8FBFF385
:10078C004F8FFEE70000002005480068006880F3EA
:10079C00088862B6BFF34F8FBFF36F8F00DF00BFC7
:1007AC0008ED00E0DFF80C00016841F47001016015
:1007BC007047000088ED00E010B4094B40F8081CAD
:1007CC004FF080746FF0020140F8044C40F8202C7C
:1007DC0040F80C3C40F8241C5DF8044B443870473E
:1007EC0065070008064B19680868B0E8F04F80F3FD
:1007FC000988BFF36F8F4FF0000080F311887047AA
:10080C0068010020074B1B68B3F57A7F08D04FF0C6
:10081C00500383F31188BFF36F8FBFF34F8FFEE745
:10082C00704700BF00000020044B4FF080521A604C
:10083C00BFF34F8FBFF36F8F704700BF04ED00E025
:10084C004FF0500383F31188BFF36F8FBFF34F8FBB
:10085C00044B1A6801321A60BFF34F8FBFF36F8FCE
:10086C00704700BF00000020084A136843B94FF0DE
:10087C00500383F31188BFF36F8FBFF34F8FFEE7E5
:10088C00013B13600BB983F3118870470000002003
:10089C00EFF311804FF0500181F311887047002065
:1008AC0080F31188704700BFEFF30980BFF36F8F9F
:1008BC00124B1A681EF0100F08BF20ED108A20E9A9
:1008CC00F04F10604DF8043D4FF0500080F311884C
:1008DC0002F0A4FF4FF0000080F3118808BC1968E7
:1008EC000868B0E8F04F1EF0100F08BFB0EC108A8B
:1008FC0080F30988BFF36F8F704700BF6801002039
:10090C0008B5EFF311834FF0500282F31188BFF357
:10091C006F8FBFF34F8F02F0E3FB18B1034B4FF017
:10092C0080521A60002383F3118808BD04ED00E0A7
:10093C00034A044B0449116007221A60704700BF38
:10094C0014E000E010E000E03F90020010B5244BF2
:10095C0024491C78244882B0E4B2FF2201941A7016
:10096C001B78DBB28DF803309DF803409DF8032013
:10097C0004F0500407230C70110603600ED50623F7
:10098C0000E00B469DF803205200D2B28DF80320F4
:10099C009DF80320120603F1FF31F2D4019C10499B
:1009AC00124A1B0203F4E063E4B203600C70136898
:1009BC0043F470031360136843F070431360FFF744
:1009CC00B7FF0B4B00221A60FFF7ECFE094B1A68BD
:1009DC0042F040421A60FFF7D7FEFFF7BDFE00BFA2
:1009EC0000E400E0700000207400002020ED00E026
:1009FC000000002034EF00E0EFF305830F2B0ED93D
:100A0C001049114A5B5C12789A4208D94FF0500396
:100A1C0083F31188BFF36F8FBFF34F8FFEE70B4A41
:100A2C000B4B12681B6802F4E0629A4208D94FF033
:100A3C00500383F31188BFF36F8FBFF34F8FFEE723
:100A4C00704700BFF0E300E0700000200CED00E008
:100A5C007400002070B5012084B0014606F0BAF88D
:100A6C00254E0121022006F0B5F84FF0804006F02B
:100A7C00B1FF304606F0AEFF01A807F0D5F800250F
:100A8C0042F2D00301A94FF080400293ADF804501C
:100A9C00ADF80C50ADF8065007F078F84FF08040E8
:100AAC00012107F0FDF84FF6FF7301A930460293C0
:100ABC0007F06CF83046012107F0F2F801241C23F2
:100ACC0068468DF800308DF802508DF801508DF885
:100ADC00034004F0F5F8224621464FF0804007F021
:100AEC0033FD21464FF0804007F000F93046214697
:100AFC0007F0FCF804B070BD00040040124A134B20
:100B0C00516A1A88042A30B489B219D9104A11488A
:100B1C0013880488CB1A9BB29C4206D2A3F50354CB
:100B2C00103C0D4D0380A4B22C800C4B11801A6824
:100B3C004FF080400132012130BC1A6007F026BD15
:100B4C00501C1880024AF0E7000400407800002096
:100B5C008000002082000020840000207C00002007
:100B6C00414A424BD2F88810414841F47001C2F816
:100B7C0088101968002241F0010119609A60196807
:100B8C0021F0847121F4803119605860196882B0A9
:100B9C0021F480211960DA60009201921A6842F403
:100BAC0080321A601A4603E0009BB3F5A04F09D0BF
:100BBC00136803F400330193009B01330093019BF2
:100BCC00002BF1D0294B1B6813F4003318BF012301
:100BDC000193019B012B42D0244A264B116C41F00E
:100BEC0080511164196841F4404119609368936015
:100BFC00936843F400439360936843F4A053936069
:100C0C00136843F08073136013689B01FCD519497A
:100C1C000B6843F480330B604B68164AD803FBD542
:100C2C00136843F40033136053689B03FCD5124BD9
:100C3C000E4A40F205711960936823F00303936028
:100C4C00936843F002039360936803F00C03082B42
:100C5C00FAD1054B4FF000629A6002B07047034B1B
:100C6C00064A5A60B8E700BF00ED00E000380240C9
:100C7C001030002400700040003C0240085A40072D
:100C8C00164B9A6802F00C02042A24D0082A0AD0C7
:100C9C00134A124B13489968134BC1F30311415C6F
:100CAC00CA401A607047586859685B6842024CBF6A
:100CBC000E4A0B4A01F03F01C3F38813B2FBF1F269
:100CCC0002FB03F2054B5B68C3F3014301335B008A
:100CDC00B2FBF3F2DDE7054ADBE700BF0038024068
:100CEC000024F400040000201400002000127A00FC
:100CFC002DE9F04F012093B0014605F047FF10207D
:100D0C00012105F043FF2020012105F03FFF1020B9
:100D1C00012105F06BFF4FF48070012105F066FF97
:100D2C00DFF82892DFF82882824F834EDFF824B256
:100D3C004FF40070012105F059FF4FF48060012140
:100D4C000024012505F052FF4FF0030A0223484608
:100D5C0002A94FF4C0628DF80C3002928DF80E404F
:100D6C008DF80F508DF80DA005F0B0FC4846092108
:100D7C00072205F049FD072248460A2105F044FDEB
:100D8C00484602A902958DF80C408DF80DA08DF8FF
:100D9C000F4005F09BFC7C2302A9684802938DF858
:100DAC000C408DF80DA08DF80F5005F08FFC4846C7
:100DBC0002A9029505F08AFC02A94023604802931F
:100DCC008DF80CA08DF80DA08DF80F4005F07EFC71
:100DDC002023484602A94FF00809029305F076FC3F
:100DEC000DEB09015748CDF8089005F06FFC04A8ED
:100DFC00049405940694079406F04EFC06F008FC47
:100E0C0040460CA90C948DF834408DF835500F9455
:100E1C0010948DF8445006F009FC0CA9384606F0E5
:100E2C0005FC0CA9304606F001FC40462A4604217C
:100E3C00072306F083FC38462A460521072306F0D3
:100E4C007DFC2A46072330460D2106F077FC4046F0
:100E5C00294606F0D3FC3846294606F0CFFC30462E
:100E6C00294606F0CBFC4046214606F0EDFC384600
:100E7C00214606F0E9FC3046214606F0E5FC4046EA
:100E8C00294606F023FC3846294606F01FFC294665
:100E9C00304606F01BFC404606F09CFC384606F03B
:100EAC0099FC304606F096FC0C2358464FF49642BB
:100EBC0008A9ADF82A300892ADF82C40ADF82840BE
:100ECC00ADF82640ADF8244006F0ECF92A46584619
:100EDC0040F2255106F046FB0526252301A88DF886
:100EEC0004308DF807508DF805608DF8066003F01E
:100EFC00E7FE2946584606F05BFA582301A88DF800
:100F0C0004308DF807508DF805608DF8066003F0FD
:100F1C00D7FE2846294605F0FBFA4846214605F03F
:100F2C00F7FA4FF4A27005F061F9074B1C8013B06F
:100F3C00BDE8F08F0020014000210140001002406C
:100F4C00001402400008024086000020000002400D
:100F5C00002201400010014030B50C4D83B000243C
:100F6C00284640F225518DF8004006F023FB50B185
:100F7C0002A90748AB8801F8083D2246694623467A
:100F8C00006800F003FD03B030BD00BF001001404D
:100F9C005800002008B5012005F0D6FA00B908BDAC
:100FAC00084B0021186800F053FD074B4FF080529E
:100FBC001A60BFF34F8FBFF36F8F0120BDE808405D
:100FCC0005F0D0BA6000002004ED00E0014608B541
:100FDC00044806F021FA0348402106F0E1FA002803
:100FEC00F9D008BD0010014008B5FFF7B9FD4FF46A
:100FFC00407003F05BFE0CF03BFC002005F0C8F8E1
:10100C000E48FF2105F022FAFF210D4805F01EFACB
:10101C00012005F0F1F801210022642000F092F982
:10102C00084B002118600322012000F08BF9064BBD
:10103C001860BDE80840FFF75BBE00BF8468014044
:10104C0004690140580000206000002038B50E4CA7
:10105C00258865B1002008F0EFFC0C48FF2105F055
:10106C00F5F9012005F0C8F80023238038BD0120D4
:10107C0008F0E2FC2946054805F0E8F9012005F0E6
:10108C00BBF80123238038BD860000200469014091
:10109C00FEE700BF704700BF002100F004B80C4B06
:1010AC005B58435004310B480B4B42189A42FFF4E7
:1010BC00F6AF0A4A00F003B8002342F8043B084B91
:1010CC009A42FFF4F9AFFFF74BFDFFF737F9704782
:1010DC00E05F0108000000205800002058000020AC
:1010EC0070300120FFF7FEBF00F108034FF0FF3115
:1010FC000022816002604360C3600361704700BFDF
:10110C0000230361704700BF436830B49A680568D8
:10111C008A609C684B606A1C6160996030BC086195
:10112C000260704730B40D686B1C11D000F10802DE
:10113C0000E01A4653681C68A542FAD204684B605A
:10114C00013499608A6051600861046030BC70475A
:10115C0002695368F2E700BF42688168036910B402
:10116C00916081685C684A601A68844208BF596063
:10117C00013A002101611A6018685DF8044B704750
:10118C0070B51646026C856B04463AB90668104673
:10119C0066BB606802F0E8FE666027E06EB98068A6
:1011AC00FFF708F8A168236C62680B449342A360B4
:1011BC0017D32368A360304618E0C068FEF7FAFF27
:1011CC00226CE3682168524213448B42E36002D2E2
:1011DC0063681A44E260022E05D135B1013D00204E
:1011EC0004E0304602E0002000E028460135A5630B
:1011FC0070BD00BF026C10B4034672B1C468406885
:10120C001444844228BF1868DC6028BFD8605DF89D
:10121C00044B0846D968FEF7CDBF5DF8044B704708
:10122C0070B50446FFF70CFB94F84550EDB26BB269
:10123C00002B15DD636A9BB104F1240605E06B1EDF
:10124C0013F0FF050CD0636A53B1304602F09CFCDE
:10125C000028F4D002F096FD6B1E13F0FF05F2D1BE
:10126C00FF2384F84530FFF7FFFAFFF7E9FA94F80B
:10127C004450EDB26BB2002B15DD23699BB104F128
:10128C00100605E06B1E13F0FF050CD0236953B15B
:10129C00304602F079FC0028F4D002F073FD6B1E8E
:1012AC0013F0FF05F2D1FF2384F84430BDE8704001
:1012BC00FFF7DABA38B504460D46D0B1FFF7C0FADD
:1012CC00206CE26B2368A36002FB00F2101A184436
:1012DC0000211344FF22A163E06084F84420636082
:1012EC0084F8452005BB236963B9FFF7BDFA0120DB
:1012FC0038BD4FF0500383F31188BFF36F8FBFF3EA
:10130C004F8FFEE704F1100002F03EFC0028ECD0F9
:10131C000B4B4FF080521A60BFF34F8FBFF36F8FA0
:10132C00FFF7A2FA012038BD04F11000FFF7DCFE34
:10133C0004F12400FFF7D8FEFFF796FA012038BD20
:10134C0004ED00E0F8B505460E46174640B94FF0DF
:10135C00500383F31188BFF36F8FBFF34F8FFEE7FA
:10136C0069B301FB00F0503003F018FC044620B3C5
:10137C0000F150032360E5632664FFF761FA206CEB
:10138C00E16B2368A36001FB00F1081A00221844EA
:10139C000B44FF21A263636084F84410E06084F87E
:1013AC00451004F11000FFF79FFE04F12400FFF735
:1013BC009BFEFFF759FA84F84C702046F8BD50207C
:1013CC0003F0ECFB044603460028D3D12046F8BDBD
:1013DC002DE9F043804685B0502003F0DFFB044636
:1013EC00002800F0C780002501232060C36305643A
:1013FC00FFF726FA216CE26B2368A36002FB01F273
:10140C00511A581804F110069918FF22A56361604F
:10141C0084F84420E06084F84520304604F1240729
:10142C00FFF762FE3846FFF75FFEFFF71DFA236CED
:10143C0025606560E560019584F84C80002B40F0D8
:10144C00EE8002F025FD18B9019B002B40F0F980CD
:10145C00FFF7F6F9A26BE36BDFF8049200259A42D2
:10146C00A84674D3019B002B00F0828015B902A80A
:10147C0002F032FCFFF7F8F901F004FEFFF7E0F997
:10148C0094F844305BB2013308BF84F8448094F87C
:10149C0045305BB2013308BF84F84580FFF7E4F9AF
:1014AC0002A801A902F024FC002840F0C180FFF73B
:1014BC00C7F9A26BE36B9A4260D0FFF7D5F9FFF73F
:1014CC00BFF994F84550EDB26BB2002B04DC10E080
:1014DC00013D15F0FF050CD0636A53B1384602F09C
:1014EC0053FB0028F4D0013D02F04CFC15F0FF0535
:1014FC00F2D1FF2384F84530FFF7B6F9FFF7A0F9D6
:10150C0094F84450EDB26BB2002B04DC10E0013DBA
:10151C0015F0FF050CD0236953B1304602F034FBB3
:10152C000028F4D0013D02F02DFC15F0FF05F2D19E
:10153C00FF2384F84430FFF797F901F073FEFFF7AF
:10154C007FF9A26BE36B9A424FF001058AD200211E
:10155C000A462046FFF714FE636A002B7AD138B195
:10156C003F4B4FF080521A60BFF34F8FBFF36F8F1A
:10157C00FFF77AF9204605B0BDE8F083FFF774F960
:10158C003046019902F024FAFFF75AF994F84550C5
:10159C00EDB26BB2002B04DC10E0013D15F0FF0541
:1015AC000CD0636A53B1384602F0EEFA0028F4D03E
:1015BC00013D02F0E7FB15F0FF05F2D1FF2384F8A3
:1015CC004530FFF751F9FFF73BF994F84450EDB271
:1015DC006BB2002B04DC10E0013D15F0FF050CD0C4
:1015EC00236953B1304602F0CFFA0028F4D0013D04
:1015FC0002F0C8FB15F0FF05F2D1FF2384F844304C
:10160C00FFF732F901F00EFE002898D14FF080530D
:10161C00C9F80030BFF34F8FBFF36F8F8FE74FF0D8
:10162C00500383F31188BFF36F8FBFF34F8FFEE727
:10163C002046FFF7F5FD01F0F5FD204605B0BDE8AD
:10164C00F0834FF0500383F31188BFF36F8FBFF318
:10165C004F8FFEE7384602F097FA002880D187E7D3
:10166C0004ED00E010B50C4640B94FF0500383F385
:10167C001188BFF36F8FBFF34F8FFEE7884208D2FC
:10168C004FF0500383F31188BFF36F8FBFF34F8F6D
:10169C00FEE700210222FFF755FE00B1846310BD66
:1016AC002DE9F04F85B004460F4601921D460028E7
:1016BC0000F00281002900F03A81022D00F02A810D
:1016CC0002F0E6FB002800F00081FFF7B9F8A26BEE
:1016DC00E36BDFF8749200269A42B046C0F0D880D3
:1016EC00022D00F0D580DDF804A0BAF1000F00F057
:1016FC000681002E00F0FF80FFF7B6F801F0C2FC67
:10170C00FFF79EF894F844305BB2013308BF84F8BD
:10171C00448094F845305BB2013308BF84F84580AF
:10172C00FFF7A2F802A801A902F0E2FA002840F0A3
:10173C00D980FFF785F8A26BE36B9A424AD0FFF78A
:10174C0093F8FFF77DF894F84560F6B273B2002B6E
:10175C0015DD636A9BB104F1240A05E0013E16F025
:10176C00FF060CD0636A53B1504602F00DFA002804
:10177C00F4D0013E02F006FB16F0FF06F2D1FF2377
:10178C0084F84530FFF770F8FFF75AF894F8446086
:10179C00F6B273B2002B15DD23699BB104F1100A6C
:1017AC0005E0013E16F0FF060CD0236953B15046FC
:1017BC0002F0EAF90028F4D0013E02F0E3FA16F048
:1017CC00FF06F2D1FF2384F84430FFF74DF801F007
:1017DC0029FD54E004F1100AFFF746F85046019930
:1017EC0002F0F6F8FFF72CF894F84560F6B273B2F5
:1017FC00002B15DD636A9BB104F1240B05E0013E5F
:10180C0016F0FF060CD0636A53B1584602F0BCF9CF
:10181C000028F4D0013E02F0B5FA16F0FF06F2D122
:10182C00FF2384F84530FFF71FF8FFF709F894F809
:10183C004460F6B273B2002B04DC10E0013E16F0EB
:10184C00FF060CD0236953B1504602F09DF90028D5
:10185C00F4D0013E02F096FA16F0FF06F2D1FF2307
:10186C0084F84430FFF700F801F0DCFC38B94FF095
:10187C008053C9F80030BFF34F8FBFF36F8FFEF763
:10188C00DFFFA26BE36B9A424FF00106BFF428AF67
:10189C0039462A462046FFF773FC636A9BBB38B176
:1018AC00294B4FF080521A60BFF34F8FBFF36F8FED
:1018BC00FEF7DAFF01201BE04FF0500383F3118891
:1018CC00BFF36F8FBFF34F8FFEE7019B002B3FF4ED
:1018DC00FCAE4FF0500383F31188BFF36F8FBFF34F
:1018EC004F8FFEE72046FFF79BFC01F09BFC00208E
:1018FC0005B0BDE8F08F02A802F0EEF9FCE6FEF7A9
:10190C00B3FF5046F4E704F1240002F03DF900283F
:10191C00C6D1CDE7E36B012B3FF4D2AE4FF05003B1
:10192C0083F31188BFF36F8FBFF34F8FFEE7036C08
:10193C00002B3FF4C2AE4FF0500383F31188BFF37A
:10194C006F8FBFF34F8FFEE704ED00E038B5044610
:10195C0030B1456802F096FA85420AD0002038BDB5
:10196C004FF0500383F31188BFF36F8FBFF34F8F8A
:10197C00FEE7E1680139E16009B1012038BD20467C
:10198C000A460B46FFF78CFE012038BD2DE9F041CD
:10199C0004460F4616461D46D0B100293ED0022DF6
:1019AC0030D0FFF729F8EFF311884FF0500383F391
:1019BC001188BFF36F8FBFF34F8FA26BE36B9A420B
:1019CC000FD3022D0DD0002088F31188BDE8F081D3
:1019DC004FF0500383F31188BFF36F8FBFF34F8F1A
:1019EC00FEE794F845302A463946DDB22046FFF72B
:1019FC00C7FB6BB201331DD06B1CDBB284F84530D6
:101A0C000120E1E7E36B012BCBD04FF0500383F3C4
:101A1C001188BFF36F8FBFF34F8FFEE7036C002B62
:101A2C00BDD04FF0500383F31188BFF36F8FBFF31A
:101A3C004F8FFEE7636A002BE2D004F1240002F022
:101A4C00A3F80028DCD0002EDAD001203060BBE7F0
:101A5C0070B504460D4660B3036C43B14FF05003B0
:101A6C0083F31188BFF36F8FBFF34F8FFEE70368CB
:101A7C00002B37D0FEF7C0FFEFF311864FF0500369
:101A8C0083F31188BFF36F8FBFF34F8FA36BE26BA0
:101A9C00934225D294F845200133FF2AA363D3B295
:101AAC0010D00133DBB284F84530012086F3118865
:101ABC0070BD4FF0500383F31188BFF36F8FBFF3EA
:101ACC004F8FFEE7636A002BEFD004F1240002F085
:101ADC005BF80028E9D0002DE7D001202860E5E76D
:101AEC000020E3E74368002BC4D04FF0500383F38E
:101AFC001188BFF36F8FBFF34F8FFEE72DE9F043D3
:101B0C0085B004460E460192002800F0458100295C
:101B1C0000F05E8102F0BCF9002800F04681FEF76F
:101B2C008FFED4F83890DFF8E08200252F46B9F10B
:101B3C00000F40F02481019B002B00F0438115B96C
:101B4C0002A802F0C9F8FEF78FFE01F09BFAFEF72F
:101B5C0077FE94F844305BB2013308BF84F84470CC
:101B6C0094F845305BB2013308BF84F84570FEF73A
:101B7C007BFE02A801A902F0BBF8002840F0A88067
:101B8C00FEF75EFEA36B002B57D104F12409FEF780
:101B9C006BFE4846019901F01BFFFEF751FE94F8CD
:101BAC004550EDB26BB2002B04DC10E0013D15F09A
:101BBC00FF050CD0636A53B1484601F0E5FF0028DD
:101BCC00F4D0013D02F0DEF815F0FF05F2D1FF2351
:101BDC0084F84530FEF748FEFEF732FE94F8445088
:101BEC00EDB26BB2002B15DD23699BB104F110092A
:101BFC0005E0013D15F0FF050CD0236953B14846B3
:101C0C0001F0C2FF0028F4D0013D02F0BBF815F042
:101C1C00FF05F2D1FF2384F84430FEF725FE01F0D6
:101C2C0001FB002840F0A2804FF08053C8F8003030
:101C3C00BFF34F8FBFF36F8F98E0FEF715FEFEF7E3
:101C4C00FFFD94F84550EDB26BB2002B15DD636AC5
:101C5C009BB104F1240905E0013D15F0FF050CD002
:101C6C00636A53B1484601F08FFF0028F4D0013D60
:101C7C0002F088F815F0FF05F2D1FF2384F8453007
:101C8C00FEF7F2FDFEF7DCFD94F84450EDB26BB2BA
:101C9C00002B15DD23699BB104F1100905E0013D12
:101CAC0015F0FF050CD0236953B1484601F06CFFC9
:101CBC000028F4D0013D02F065F815F0FF05F2D1D3
:101CCC00FF2384F84430FEF7CFFD01F0ABFA4DE072
:101CDC00FEF7B6FD94F84550EDB26BB2002B15DD56
:101CEC00636A9BB104F1240905E0013D15F0FF0581
:101CFC000CD0636A53B1484601F046FF0028F4D07B
:101D0C00013D02F03FF815F0FF05F2D1FF2384F8F6
:101D1C004530FEF7A9FDFEF793FD94F84450EDB263
:101D2C006BB2002B15DD23699BB104F1100905E0A2
:101D3C00013D15F0FF050CD0236953B1484601F065
:101D4C0023FF0028F4D0013D02F01CF815F0FF052C
:101D5C00F2D1FF2384F84430FEF786FD01F062FADD
:101D6C00FEF76EFDA36B6BB3FEF77EFDFEF768FD11
:101D7C00D4F838900125B9F1000F3FF4DCAE3146B0
:101D8C002046FFF737FA09F1FF33A363236963BBDE
:101D9C00FEF76AFD012018E04FF0500383F3118821
:101DAC00BFF36F8FBFF34F8FFEE7019B002B3FF408
:101DBC00B6AE4FF0500383F31188BFF36F8FBFF3B0
:101DCC004F8FFEE7FEF750FD002005B0BDE8F08315
:101DDC00036C002B3FF49EAE4FF0500383F311883D
:101DEC00BFF36F8FBFF34F8FFEE704F1100001F0CC
:101DFC00CBFE0028CCD0044B4FF080521A60BFF3BE
:101E0C004F8FBFF36F8FC3E704ED00E02DE9F04374
:101E1C0085B00446019150B1036C8BB14FF0500367
:101E2C0083F31188BFF36F8FBFF34F8FFEE74FF033
:101E3C00500383F31188BFF36F8FBFF34F8FFEE70F
:101E4C0002F026F818B9019B002B40F01A81FEF71E
:101E5C00F7FCA36BDFF8708200252E462F46002B73
:101E6C0040F09180019B002B00F0EA8016B902A88B
:101E7C0001F032FFFEF7F8FC01F004F9FEF7E0FC8C
:101E8C0094F844305BB2013308BF84F8447094F882
:101E9C0045305BB2013308BF84F84570FEF7E4FCB3
:101EAC0002A801A901F024FF00287AD1FEF7C8FC92
:101EBC00A36B002B59D1FEF7D7FC2368002B00F045
:101ECC00F98004F124094846019901F081FDFEF7DF
:101EDC00B7FC94F84560F6B273B2002B04DC10E04A
:101EEC00013E16F0FF060CD0636A53B1484601F070
:101EFC004BFE0028F4D0013E01F044FF16F0FF0623
:101F0C00F2D1FF2384F84530FEF7AEFCFEF798FCC7
:101F1C0094F84460F6B273B2002B15DD23699BB1C3
:101F2C0004F1100905E0013E16F0FF060CD0236900
:101F3C0053B1484601F028FE0028F4D0013E01F0D0
:101F4C0021FF16F0FF06F2D1FF2384F84430FEF790
:101F5C008BFC01F067F978B94FF08053C8F800306A
:101F6C00BFF34F8FBFF36F8F06E0FEF77DFC20466B
:101F7C00FFF756F901F056F9FEF762FCA36B012648
:101F8C00002B3FF46FAF2268013BA36312B902F040
:101F9C00B5F860602369002B7CD1FEF765FC01204D
:101FAC0066E0FEF74DFC94F84560F6B273B2002B78
:101FBC0015DD636A9BB104F1240905E0013E16F0BE
:101FCC00FF060CD0636A53B1484601F0DDFD0028D2
:101FDC00F4D0013E01F0D6FE16F0FF06F2D1FF233D
:101FEC0084F84530FEF740FCFEF72AFC94F8446078
:101FFC00F6B273B2002B15DD23699BB104F1100905
:10200C0005E0013E16F0FF060CD0236953B148469B
:10201C0001F0BAFD0028F4D0013E01F0B3FE16F039
:10202C00FF06F2D1FF2384F84430FEF71DFC01F0CB
:10203C00F9F8FEF705FCA36BEBB1FEF715FC9BE77B
:10204C009DB14FF0500383F31188BFF36F8FBFF333
:10205C004F8FFEE7FEF7F4FB616A19B1236B196829
:10206C00C1F10501606801F0D9FFFEF7FDFB00200E
:10207C0005B0BDE8F083FEF7F7FB002DEAD128464A
:10208C00F6E74FF0500383F31188BFF36F8FBFF364
:10209C004F8FFEE704F1100001F076FD00283FF4AD
:1020AC007CAF094B4FF080521A60BFF34F8FBFF3D8
:1020BC006F8F72E7FEF7C4FB606801F0F9FE05460E
:1020CC00FEF7D2FBFDE600BF04ED00E070B5044660
:1020DC000E4690B1456801F0D5FE854208D03146D8
:1020EC002046FFF793FE10B1E3680133E36070BD47
:1020FC00E3680133E360012070BD4FF0500383F3BC
:10210C001188BFF36F8FBFF34F8FFEE72DE9F043BC
:10211C0085B004460E460192002800F0408100294B
:10212C0000F0598101F0B4FE002800F04181FEF767
:10213C0087FBA36BDFF8D88200252F46002B40F0DD
:10214C002281019B002B00F0408115B902A801F0FF
:10215C00C3FDFEF789FB00F095FFFEF771FB94F8C9
:10216C0044305BB2013308BF84F8447094F84530B6
:10217C005BB2013308BF84F84570FEF775FB02A80B
:10218C0001A901F0B5FD002840F0A880FEF758FB2E
:10219C00A36B002B57D104F12409FEF765FB4846CD
:1021AC00019901F015FCFEF74BFB94F84550EDB28C
:1021BC006BB2002B04DC10E0013D15F0FF050CD0D8
:1021CC00636A53B1484601F0DFFC0028F4D0013DAE
:1021DC0001F0D8FD15F0FF05F2D1FF2384F845304E
:1021EC00FEF742FBFEF72CFB94F84450EDB26BB2B9
:1021FC00002B15DD23699BB104F1100905E0013DAD
:10220C0015F0FF050CD0236953B1484601F0BCFC16
:10221C000028F4D0013D01F0B5FD15F0FF05F2D119
:10222C00FF2384F84430FEF71FFB00F0FBFF00286F
:10223C0040F0A2804FF08053C8F80030BFF34F8FAE
:10224C00BFF36F8F98E0FEF70FFBFEF7F9FA94F8E7
:10225C004550EDB26BB2002B15DD636A9BB104F1F6
:10226C00240905E0013D15F0FF050CD0636A53B15C
:10227C00484601F089FC0028F4D0013D01F082FDB4
:10228C0015F0FF05F2D1FF2384F84530FEF7ECFA88
:10229C00FEF7D6FA94F84450EDB26BB2002B15DD74
:1022AC0023699BB104F1100905E0013D15F0FF0510
:1022BC000CD0236953B1484601F066FC0028F4D0D9
:1022CC00013D01F05FFD15F0FF05F2D1FF2384F80D
:1022DC004430FEF7C9FA00F0A5FF4DE0FEF7B0FA66
:1022EC0094F84550EDB26BB2002B15DD636A9BB1CF
:1022FC0004F1240905E0013D15F0FF050CD0636ADB
:10230C0053B1484601F040FC0028F4D0013D01F0E7
:10231C0039FD15F0FF05F2D1FF2384F84530FEF7A7
:10232C00A3FAFEF78DFA94F84450EDB26BB2002B81
:10233C0015DD23699BB104F1100905E0013D15F091
:10234C00FF050CD0236953B1484601F01DFC002851
:10235C00F4D0013D01F016FD15F0FF05F2D1FF237D
:10236C0084F84430FEF780FA00F05CFFFEF768FA60
:10237C00A36B53B3FEF778FAFEF762FAA36B012551
:10238C00002B3FF4DEAE31462046E568FEF732FF07
:10239C00636AE56063BBFEF767FA012018E04FF053
:1023AC00500383F31188BFF36F8FBFF34F8FFEE79A
:1023BC00019B002B3FF4BBAE4FF0500383F311880D
:1023CC00BFF36F8FBFF34F8FFEE7FEF74DFA002080
:1023DC0005B0BDE8F083036C002B3FF4A3AE4FF0C7
:1023EC00500383F31188BFF36F8FBFF34F8FFEE75A
:1023FC0004F1240001F0C8FB0028CCD0044B4FF0B2
:10240C0080521A60BFF34F8FBFF36F8FC3E700BFCB
:10241C0004ED00E02DE9F04104460F46164698B154
:10242C0069B3FEF7E9FAEFF311884FF0500383F329
:10243C001188BFF36F8FBFF34F8FA56B6DB9284613
:10244C0088F31188BDE8F0814FF0500383F31188B5
:10245C00BFF36F8FBFF34F8FFEE794F844303946CC
:10246C002046DFB2FEF7C6FE7BB2013D0133A56309
:10247C0011D07B1CDBB284F844300120E0E7036C04
:10248C00002BCED04FF0500383F31188BFF36F8F26
:10249C00BFF34F8FFEE72369002BEED004F1100041
:1024AC0001F072FB0028E8D0002EE6D0012030604D
:1024BC00C6E700BF70B504460D4658B1036C51B366
:1024CC008BB94FF0500383F31188BFF36F8FBFF3B9
:1024DC004F8FFEE74FF0500383F31188BFF36F8FDC
:1024EC00BFF34F8FFEE7FEF787FAEFF311864FF03D
:1024FC00500383F31188BFF36F8FBFF34F8FA06B23
:10250C0030B129462046E568FEF774FEE5600120EF
:10251C0086F3118870BD002BD3D04FF0500383F39A
:10252C001188BFF36F8FBFF34F8FFEE710B50446D2
:10253C0030B1FEF785F9A46BFEF796F9204610BD75
:10254C004FF0500383F31188BFF36F8FBFF34F8F9E
:10255C00FEE700BF10B5044640B1FEF771F9A36B5E
:10256C00E46BE41AFEF780F9204610BD4FF05003DF
:10257C0083F31188BFF36F8FBFF34F8FFEE700BF5C
:10258C0008B1806B70474FF0500383F31188BFF391
:10259C006F8FBFF34F8FFEE710B448B3314B5A68BF
:1025AC0090422ED0DA6890424BD05A69904250D06B
:1025BC00DA6990422DD05A6A904232D0DA6A90424F
:1025CC0037D05A6B904208D0DA6B904208BF072282
:1025DC0004D05DF8044B02F011BB062203EBC204DD
:1025EC00002143F8321061605DF8044B02F006BB29
:1025FC004FF0500383F31188BFF36F8FBFF34F8FEE
:10260C00FEE7002203EBC204002143F832106160A4
:10261C00EAE7032203EBC204002143F832106160A5
:10262C00E2E7042203EBC204002143F8321061609C
:10263C00DAE7052203EBC204002143F83210616093
:10264C00D2E7012203EBC204002143F8321061608F
:10265C00CAE7022203EBC204002143F83210616086
:10266C00C2E700BF88000020806C7047816470470F
:10267C0090F84C00704700BF28B1806BD0F101007E
:10268C0038BF002070474FF0500383F31188BFF31D
:10269C006F8FBFF34F8FFEE728B1826BC06B131A9D
:1026AC005842584170474FF0500383F31188BFF3E1
:1026BC006F8FBFF34F8FFEE7144B1A6810B48AB1BB
:1026CC009A68BAB11A69BAB19A69BAB11A6ABAB146
:1026DC009A6ABAB11A6B22B19A6BAAB15DF8044B23
:1026EC007047062203EBC20443F8321060605DF8B9
:1026FC00044B70470122F5E70222F3E70322F1E7CE
:10270C000422EFE70522EDE70722EBE78800002023
:10271C00164B5A6882421CD0DA6882421BD05A6926
:10272C0082421AD0DA69824219D05A6A824218D08F
:10273C00DA6A824217D05A6B824206D0DA6B824236
:10274C0008BF072202D000207047062253F832003F
:10275C0070470022FAE70122F8E70222F6E703228B
:10276C00F4E70422F2E70522F0E700BF880000201E
:10277C00174B5A6882421FD0DA6882421ED05A69BF
:10278C0082421DD0DA6982421CD05A6A82421BD026
:10279C00DA6A82421AD05A6B824205D0DA6B8242D4
:1027AC0008BF072201D07047062203EBC2000021AC
:1027BC0043F83210416070470022F6E70122F4E73B
:1027CC000222F2E70322F0E70422EEE70522ECE70F
:1027DC008800002070B504460E461546FEF730F80A
:1027EC0094F844305BB2013304BF002384F84430C6
:1027FC0094F845305BB2013304BF002384F84530B4
:10280C00FEF732F8A36B2BB931462A4604F12400AB
:10281C0001F05EF9FEF714F894F84550EDB26BB286
:10282C00002B15DD636A9BB104F1240605E06B1ED9
:10283C0013F0FF050CD0636A53B1304601F0A4F9D4
:10284C000028F4D001F09EFA6B1E13F0FF05F2D1B4
:10285C00FF2384F84530FEF707F8FDF7F1FF94F8F5
:10286C004450EDB26BB2002B15DD23699BB104F122
:10287C00100605E06B1E13F0FF050CD0236953B155
:10288C00304601F081F90028F4D001F07BFA6B1E80
:10289C0013F0FF05F2D1FF2384F84430BDE87040FB
:1028AC00FDF7E2BF2DE98848184FDFF86880184E15
:1028BC00DFF86490DFF864B03D464FF0805A15E0C5
:1028CC00FDF7BEFFD8F80C30DC68201DFEF744FC89
:1028DC003368013B33602B68013B2B60FDF7C4FF71
:1028EC00206B02F08BF9204602F088F93B68002B34
:1028FC00E6D1D9F80030012B05D9CBF800A0BFF3F5
:10290C004F8FBFF36F8FFDF709FEEFE7A801002093
:10291C00C0010020D40000200001002004ED00E0E4
:10292C00074B1A68126822B9064B4FF0FF321A6037
:10293C0070471A68034BD268D26852681A607047A5
:10294C00CC0000206C010020F8B51C4B1C4D1E68FF
:10295C002B680446181D0F46FEF7FEFB48B92A6883
:10296C00184BD26A1968012000FA02F221EA02021D
:10297C001A60631C19D034442B68114A5C60A6425F
:10298C000BD8114B186811680431FEF7CBFB0F4BB9
:10299C001A68944238BF1C60F8BD0D4B186811685A
:1029AC00BDE8F8400431FEF7BDBB002FE3D0296829
:1029BC0008480431BDE8F840FEF7A6BB74010020BE
:1029CC0068010020C4010020CC0000206C01002014
:1029DC0078010020E80000202DE9F84F970082468E
:1029EC0038460E469946DDF82C8002F0D7F804469E
:1029FC00002800F08F80602002F0D0F805460028F7
:102A0C0000F0858004633A462046A5210FF0F4FCC3
:102A1C002B6B043F3B4423F0070B00242B19325D36
:102A2C0083F83420375D01340FB1142CF6D10A9F92
:102A3C000024042F28BF04272E1DEF622F6530467B
:102A4C0085F847406C65FEF75BFBC7F1050705F1A0
:102A5C001800FEF755FBAC65AF612D6185F85C4045
:102A6C006D62584651464A46FDF7A6FE2860B8F1FD
:102A7C00000F01D0C8F80050FDF7E2FE3F4B404C70
:102A8C001A6801321A602268002A47D0DFF81891C0
:102A9C00D9F800307BB3EB6ADFF810A1394F3A4A12
:102AAC00396810684FF0010801EB080E08FA03FCB6
:102ABC0003EB83033146C5F848E04CEA00060AEB09
:102ACC008300C7F800E01660FEF71EFBFDF7CCFE96
:102ADC00D9F80030C3B12268EB6AD26A9A4213D299
:102AEC002A4B4FF080521A60BFF34F8FBFF36F8F9A
:102AFC004046BDE8F88F2268EB6AD26ADFF8ACA0DA
:102B0C009A4298BF2560C9E74046BDE8F88F204639
:102B1C0002F074F84FF0FF30BDE8F88F25601B68A9
:102B2C00012B05D0EB6ADFF884A0DFF87C90B5E7C9
:102B3C00DFF878A057460AF1640838461437FEF7D8
:102B4C00D3FA4745F9D1DFF86880114FDFF8589078
:102B5C004046FEF7C9FA3846FEF7C6FA0D48FEF7AE
:102B6C00C3FA0D48FEF7C0FA0C48FEF7BDFA0C4B41
:102B7C000C4AC3F80080EB6A17608FE7C001002095
:102B8C006801002090010020C401002004ED00E049
:102B9C007C010020AC010020D4000020E8000020C3
:102BAC00CC00002078010020D00000200001002083
:102BBC009401002070B50446354DFDF741FE002C04
:102BCC0045D0261D3046FEF7C7FA38B9E36A3149BD
:102BDC0003EB830292008A58002A2FD0A36A1BB100
:102BEC0004F11800FEF7B8FA2B4B29681A688C42CE
:102BFC0002F101021A602CD0284B206B1A68013AA2
:102C0C001A6001F0FBFF204601F0F8FF244B1A6814
:102C1C00126872B11A68234BD268D26852681A6073
:102C2C00FDF722FE204B1B6813B12B689C4219D078
:102C3C0070BD1C4B4FF0FF321A60F1E71B4A0120AC
:102C4C00116800FA03F321EA03031360C6E72C684A
:102C5C00B7E731461648FEF757FA164B1A68013299
:102C6C001A60DDE7144B1B6843B14FF0500383F33C
:102C7C001188BFF36F8FBFF34F8FFEE70F4B4FF0F1
:102C8C0080521A60BFF34F8FBFF36F8F70BD00BFC0
:102C9C00680100200001002090010020C0010020EC
:102CAC00CC0000206C010020D0000020C4010020CA
:102CBC00D4000020A80100206401002004ED00E0F5
:102CCC0038B5054608B3184B1B6898421BD0FDF766
:102CDC00B7FD6C69FDF7C8FD144B1B689C420ED008
:102CEC00134B1B689C420AD0124B9C4216D0124BC1
:102CFC009C4206D0002C14BF0120042038BD0220B9
:102D0C0038BD042038BD002038BD4FF0500383F38C
:102D1C001188BFF36F8FBFF34F8FFEE7AB6A002BA9
:102D2C0014BF0220032038BD68010020CC00002015
:102D3C0078010020E8000020D400002010B50446E3
:102D4C00FDF77EFD24B1E46AFDF78EFD204610BD33
:102D5C00034B1C68E46AFDF787FD204610BD00BFDD
:102D6C006801002010B50446FDF746FEEFF3118311
:102D7C004FF0500282F31188BFF36F8FBFF34F8F68
:102D8C001CB1E06A83F3118810BD034A1468E06A31
:102D9C0083F3118810BD00BF6801002004292DE9C0
:102DAC00F0410D46044608D94FF0500383F31188C7
:102DBC00BFF36F8FBFF34F8FFEE7FDF741FD002C84
:102DCC004ED0236D9D4247D0284A09D911688C42B8
:102DDC0049D01268D76ABD4234BF0027012703E0EF
:102DEC001768E21B57425741E66A2565B342A3694F
:102DFC0008BFE562002BA4BFC5F10505A5611C4DFC
:102E0C00636906EB860205EB820293421BD104F147
:102E1C0004084046FEF7A0F9164B30B91A68012198
:102E2C0001FA06F622EA06021A60E26A1C6801261A
:102E3C0002EB8200964046EA0402414605EB800014
:102E4C001A60FEF761F93FB10B4B4FF080521A60DC
:102E5C00BFF34F8FBFF36F8FBDE8F041FDF704BD9B
:102E6C00024B1C68ADE70027BEE700BF68010020DD
:102E7C0000010020C401002004ED00E0F8B5044678
:102E8C0070B1224D2B68984209D0FDF7D9FC204A2D
:102E9C00636993420DD0BDE8F840FDF7E5BCF8BD81
:102EAC004FF0500383F31188BFF36F8FBFF34F8F35
:102EBC00FEE7A36A174A9342EDD0002BEBD1261DF7
:102ECC003046FEF749F9144AE36A176813484FF085
:102EDC00010E0EFA03FE03EB8303314600EB830075
:102EEC004EEA07061660FEF70FF92B68E26ADB6AFA
:102EFC009A42D0D30A4B4FF080521A60BFF34F8FD7
:102F0C00BFF36F8FBDE8F840FDF7AEBC6801002041
:102F1C00E8000020AC010020C401002000010020CA
:102F2C0004ED00E0F8B50446A0B1FDF765FDEFF344
:102F3C0011874FF0500383F31188BFF36F8FBFF3EA
:102F4C004F8F224A636993420DD0002587F3118875
:102F5C002846F8BD4FF0500383F31188BFF36F8FF1
:102F6C00BFF34F8FFEE7A56A19488542EDD0002DBF
:102F7C00EBD1184B1B680BBB174AE36A1268D56A76
:102F8C00261DAB42304634BF00250125FEF7E4F880
:102F9C00124AE36A124814684FF0010E0EFA03FE4F
:102FAC0003EB83034EEA0404314600EB8300146008
:102FBC00FEF7AAF887F311882846F8BD04F118012A
:102FCC00FEF7A2F887F311882846F8BDE800002028
:102FDC00AC0100206401002068010020C401002025
:102FEC000001002030B583B00024184A01920094EF
:102FFC002346174817498222FFF7EEFC01280CD014
:10300C00013001D003B030BD4FF0500383F3118871
:10301C00BFF36F8FBFF34F8FFEE701F045FB012825
:10302C00EED14FF0500383F31188BFF36F8FBFF3D2
:10303C004F8F0949094A0A4B4FF0FF350D6010605C
:10304C001C6003B0BDE83040FDF780BC700100206F
:10305C00B1280008282501086C010020D0000020B0
:10306C00740100204FF0500383F31188BFF36F8F6E
:10307C00BFF34F8F024B00221A60FDF7C3BB00BF9A
:10308C00D0000020024B1A6801321A60704700BF52
:10309C0064010020014B1868704700BF74010020C8
:1030AC0008B5FDF7A9FC014B186808BD7401002098
:1030BC00014B1868704700BFC001002008B13430C4
:1030CC007047064B18680028F9D14FF0500383F372
:1030DC001188BFF36F8FBFF34F8FFEE7680100209D
:1030EC002DE9F84F444B1B68002B79D1434B1C68DE
:1030FC0001341C60BCB9424B1A68126842B14FF0E3
:10310C00500383F31188BFF36F8FBFF34F8FFEE72C
:10311C003C4918683C4A0D681D600860136801330F
:10312C001360FFF7FDFB394D394E2B68394F9C422C
:10313C003CD3DFF8EC904FF0000B2EE0304B1A68CC
:10314C00D268D2F80C80D8F8041008F1040A8C422A
:10315C0050464ED3FEF700F8D8F8281008F11800A6
:10316C0009B1FDF7F9FFD8F82C10D9F8003001227D
:10317C0002FA01FC01EB810006EB800051464CEA9F
:10318C000303C9F80030FDF7BFFF3868D8F82C10DE
:10319C00C26A914228BF4FF0010B194B1A68126892
:1031AC00002ACBD14FF0FF322A6001E04FF0000B28
:1031BC003A681948D26A02EB82029200B15802684E
:1031CC00022928BF4FF0010B0AB9FDF763FF134A20
:1031DC001268002A18BF4FF0010B5846BDE8F88F53
:1031EC000D4B1A6801321A604FF0000BFDF752FFBD
:1031FC00EDE72960DCE700BF6401002074010020CA
:10320C00CC00002078010020C80000206C010020B8
:10321C000001002068010020FC000020C8010020F3
:10322C00C40100202DE9F84F324C236843B94FF00C
:10323C00500383F31188BFF36F8FBFF34F8FFEE7FB
:10324C00FDF7FEFA2368013B23602468002C4BD168
:10325C00294B1B68002B47D0DFF8B490274D284E24
:10326C00DFF8B0A0CB4620E0DBF80C30DC6804F1D2
:10327C00040804F11800FDF76FFF4046FDF76CFFE2
:10328C00E36A326807FA03FE03EB830041464EEA19
:10329C0002030AEB80003360FDF736FF194AE36A3C
:1032AC001268D26A934228BF2F60D9F800300127E8
:1032BC00002BD9D10CB1FFF733FB134E34683CB162
:1032CC000127FFF70DFF00B12F60013CF9D13460ED
:1032DC002B684BB10D4B4FF080521A60BFF34F8FE0
:1032EC00BFF36F8F012400E00024FDF7BDFA2046E8
:1032FC00BDE8F88F64010020C0010020C801002047
:10330C00C401002068010020FC00002004ED00E056
:10331C00AC0100200001002038B5A8B141B94FF034
:10332C00500383F31188BFF36F8FBFF34F8FFEE70A
:10333C001C4A13688BB14FF0500383F31188BFF311
:10334C006F8FBFF34F8FFEE74FF0500383F311885D
:10335C00BFF36F8FBFF34F8FFEE71568124B0468F6
:10336C00013515601A68A24204EB010314D29C4289
:10337C0016D99A4214D203600021981AFFF7E4FA86
:10338C00FFF750FF58B9094B4FF080521A60BFF34A
:10339C004F8FBFF36F8F38BD9C42ECD8E9E738BD37
:1033AC000360EDE7640100207401002004ED00E0EF
:1033BC0008B558B10F4B196889B14FF0500383F31E
:1033CC001188BFF36F8FBFF34F8FFEE70A4B4FF09F
:1033DC0080521A60BFF34F8FBFF36F8F08BD1A680E
:1033EC0001321A60FFF7B0FAFFF71CFF0028EDD08E
:1033FC0008BD00BF6401002004ED00E02DE9F04F92
:10340C009C4D9D4B2C6801342C601B6885B08B4205
:10341C000190029200F29180DFF87CC2DFF87CE22E
:10342C004FF0000A0CF10806D146DCF80050002DD4
:10343C002ED1924B143E9E42AA44ACF1140CF4D102
:10344C008F4B1E683768002F40F0C7808D4B1E686D
:10345C003368BA44002B78D19E468B4F3E680EEBF6
:10346C000A08002E40F01C81884F396846440396A8
:10347C00002940F064818946039B029D99440DB15B
:10348C0000232B60FFF7CEFE484605B0BDE8F08F59
:10349C0056F8043C7E4F596846F8041CB14208BFEC
:1034AC007168019D7B4A08BF46F8041CC7EB0C08E9
:1034BC000AEBCA03CF68009705EB83039044002501
:1034CC00496846F8041CB14204BF58F84C1C46F835
:1034DC00041CCC6874B3224602F134001A605860A4
:1034EC00D06A1861106BD861976CDEF800B09F60E1
:1034FC00176D5F61B2EB0B0218BF0122C3F8189075
:10350C001A730278A52A4FF000020AD1009F10F816
:10351C0001BFBBF1A50F02F10102F8D00097C2F375
:10352C008F021A84009AA24205F1010503F12403CB
:10353C00C6D17EE7DEF80020CEE7FFF773FE4FF032
:10354C000009484605B0BDE8F08F7368DFF84CB150
:10355C005C68746006F10807BC4208BF6468019B94
:10356C00D4F80C800AEBCA004FF0000E03EB80007D
:10357C00F44664687460A74204BFF4687460E16840
:10358C00002973D00B4603F1340203604260DA6AFF
:10359C0002611A6BC2619D6CDBF8009085601D6D39
:1035AC0045614B4514BF02230023C0F818C00373B8
:1035BC001378A52B4FF0000307D112F8015FA52D4E
:1035CC0003F10103F9D0C3F38F03884503840EF193
:1035DC00010E00F12400CCD13FE77368019D5C68BB
:1035EC00746006F1080E744508BF6468DFF8ACB06F
:1035FC00D4F80C800AEBCA00002705EB8000BC460F
:10360C0064687460A64504BFF4687460E16851B3E3
:10361C000B4603F1340203604260DA6A02611A6BF2
:10362C00C2619D6CDBF8009085601D6D45614B455A
:10363C0014BF02230023C0F818C003731378A52B02
:10364C004FF0000307D112F8015FA52D03F1010320
:10365C00F9D0C3F38F038845038407F1010700F108
:10366C002400CDD1F2E6DBF80030D2E7DBF80030F5
:10367C0089E700BF64010020C0010020F400002095
:10368C00CC00002078010020D4000020E8000020AD
:10369C00000100205801002050010020680100208A
:1036AC007B685A495C687C6007F1080E744508BF5A
:1036BC00FC68D1F80CA0019BD4F80C90DFF858B141
:1036CC0008EBC800002603EB8000B446554664683E
:1036DC004E4F74457C6004BF2C467D60E16859B345
:1036EC000B4603F1340203604260DA6A02611A6B22
:1036FC00C2619F6CDBF800A087601F6D476153456A
:10370C0014BF04230023C0F818C003731378A52B2F
:10371C004FF0000308D112F801AFBAF1A50F03F175
:10372C000103F8D0C3F38F038945038406F1010626
:10373C0000F12400CBD197E6DBF80030D1E77B68B1
:10374C00039A5B687B6007F108018B4208BFFB683A
:10375C00DFF8C4B0DD680095019D02EBC2044FF0A8
:10376C00000905EB84044FF003084D465B682849BB
:10377C007B608B4204BF4B6841F8043CDE68002E32
:10378C0040D0B2460AF13403C4F800A06360DAF802
:10379C002C302361DAF83030E361DAF84830DBF8AA
:1037AC000020A360DAF8503063619245A56127D000
:1037BC00184B84F80C801A681649DAF82830013254
:1037CC000A600BB102232373FFF72CFDDAF83020CB
:1037DC001378A52B4FF0000307D112F8011FA52970
:1037EC0003F10103F9D0C3F38F03009A2384B2428F
:1037FC0009F1010904F124043FF43EAE7B68B5E7FE
:10380C002573E3E7DBF800A0BCE700BFD400002081
:10381C00F00000206401002068010020234B1B688D
:10382C0010B5002B34D1224A224C136023681B6B39
:10383C001A68B2F1A53F03D15A68B2F1A53F2BD05B
:10384C00206821683431FDF723FC1B4B1B68B3FA4D
:10385C0083F3DBB2C3F11F0303EB83039B00174A13
:10386C00D15841B94FF0500383F31188BFF36F8FD8
:10387C00BFF34F8FFEE71A4402F1080153685B68EF
:10388C0053608B4204BF5B685360DB68236010BDE0
:10389C00074B01221A6010BD9A68B2F1A53FCFD137
:1038AC00DB68B3F1A53FCBD1CFE700BF64010020AB
:1038BC00C801002068010020C40100200001002084
:1038CC0070B50446384DFCF7BBFF002C5ED0261DAE
:1038DC003046FDF741FC30B9E36A344903EB83020F
:1038EC0092008A58D2B1A36A1BB104F11800FDF7FB
:1038FC0033FC31462E482F4EFDF706FC94F85C3015
:10390C00012B04BF002384F85C30FCF7ADFF336857
:10391C006BB92B68244A9C4219D070BD264A0120F1
:10392C00116800FA03F321EA03031360DBE7FCF7E9
:10393C0087FF224B1A6812680ABB214B4FF0FF32EB
:10394C001A60FCF791FF2B68174A9C42E5D133684B
:10395C005BB11C4B1B68EBB14FF0500383F3118828
:10396C00BFF36F8FBFF34F8FFEE711481649006806
:10397C00096888420CD0BDE87040FFF74FBF1A6849
:10398C000F4BD268D26852681A60DAE72C689EE74F
:10399C00136070BD0D4B4FF080521A60BFF34F8F08
:1039AC00BFF36F8F70BD00BF6801002000010020C5
:1039BC00E8000020D0000020C4010020CC00002032
:1039CC006C01002064010020C001002004ED00E027
:1039DC0070B50D4648B3214C21681831FDF7A2FB98
:1039EC001F4B1E6820680430FDF7B6FB48B92268EF
:1039FC001C4BD16A1A68012000FA01F122EA01027B
:103A0C001A606B1C1AD02268144BAC19A642546075
:103A1C001BD8154A106819680431FDF783FB134B4A
:103A2C001A68944238BF1C6070BD4FF0500383F38A
:103A3C001188BFF36F8FBFF34F8FFEE721680C48DF
:103A4C000431BDE87040FDF75FBB0A4A1068196885
:103A5C00BDE870400431FDF765BB00BF6801002074
:103A6C0074010020C4010020CC0000206C01002057
:103A7C00E80000207801002010B51446D8B1124B94
:103A8C001B6843B94FF0500383F31188BFF36F8F5A
:103A9C00BFF34F8FFEE70D4B1A681B6841F00041D6
:103AAC00916103F11801FDF72FFB20460121BDE8C0
:103ABC001040FEF749BF4FF0500383F31188BFF35A
:103ACC006F8FBFF34F8FFEE7640100206801002069
:103ADC00F8B50D46164600282ED0244C2168183116
:103AEC00FDF712FB224B1F682068002E00F104002A
:103AFC0018BF4FF0FF35FDF72FFB48B922681D4B5F
:103B0C00D16A1A68012000FA01F122EA01021A6056
:103B1C006B1C22D03D442268144B5560AF4214D824
:103B2C00154A106819680431FDF7FCFA134B1A6832
:103B3C00954238BF1D60F8BD4FF0500383F31188D8
:103B4C00BFF36F8FBFF34F8FFEE70D4A10681968F4
:103B5C00BDE8F8400431FDF7E5BA002EDAD0216853
:103B6C0008480431BDE8F840FDF7CEBA68010020E2
:103B7C0074010020C4010020CC0000206C01002046
:103B8C0078010020E8000020F8B5C368DC6834B385
:103B9C0004F118052846FDF7DFFA184B1B683BBBF0
:103BAC00251D2846FDF7D8FA154AE36A166815480C
:103BBC0001279F4003EB8303294600EB830047EA70
:103BCC0006051560FDF7A0FA0F4BE26A1B68DB6A6D
:103BDC009A4283BF0D4B012018600020F8BD4FF0B6
:103BEC00500383F31188BFF36F8FBFF34F8FFEE742
:103BFC0029460748FDF788FAE6E700BF6401002074
:103C0C00C40100200001002068010020C801002030
:103C1C00AC010020F8B51D4B1A6842B94FF05003A7
:103C2C0083F31188BFF36F8FBFF34F8FFEE7C46828
:103C3C0041F000420260FCB1251DFDF78DFA2846CB
:103C4C00FDF78AFA124AE36A17681248012606FA47
:103C5C0003FE03EB8303294600EB83004EEA0705C2
:103C6C001560FDF751FA0C4BE26A1B68DB6A9A424D
:103C7C0084BF0A4B1E60F8BD4FF0500383F31188CC
:103C8C00BFF36F8FBFF34F8FFEE700BF64010020BF
:103C9C00C40100200001002068010020C8010020A0
:103CAC0010B5044658B1FCF7CBFD094A094B126814
:103CBC001B6884E80C00BDE81040FCF7D5BD4FF044
:103CCC00500383F31188BFF36F8FBFF34F8FFEE761
:103CDC00C800002074010020034A044B12681B68C2
:103CEC0080E80C00704700BFC80000207401002061
:103CFC00F8B504460D4640B3F1B1FCF7A1FD2B68B5
:103D0C001E4A60681668591C33D01D492768D1F8C3
:103D1C0000E0774506D0864204D30125FCF7A4FDCC
:103D2C002846F8BD301A984218D300232B60012581
:103D3C00FCF79AFD2846F8BD4FF0500383F3118829
:103D4C00BFF36F8FBFF34F8FFEE74FF0500383F33A
:103D5C001188BFF36F8FBFF34F8FFEE709681268AE
:103D6C001B1A2B60002584E80600FCF77DFD284615
:103D7C00F8BD0025FCF778FD2846F8BD740100203D
:103D8C00C8000020014B01221A607047C8010020B6
:103D9C0000B1C06C704700BF00B1C164704700BF78
:103DAC00F8B50D4604461746304900284CD0E26A57
:103DBC002A61226BEA61226DA66C6A6104F13400FF
:103DCC000022052B2C606860AE60AA6123D00968C4
:103DDC008C4237D0032B2B7312D07FB1226B13780C
:103DEC00A52B4FF0000307D112F8010FA52803F102
:103DFC000103F9D0C3F38F032B84F8BD2F84F8BDD6
:103E0C001B4BA26A1968013119600AB102232B738A
:103E1C00FFF708FAE1E70B689C4213D0FCF710FDA2
:103E2C006669FCF721FD134B1B689E4214D0124BA4
:103E3C001B689E4210D0114B9E4210D0104B9E42DC
:103E4C0004D104222A73C8E70C68B0E7002E14BF13
:103E5C00012204222A73C0E702222A73BDE7A36A57
:103E6C00002B14BF022203222A73B6E7680100203C
:103E7C0064010020CC00002078010020E800002024
:103E8C00D4000020014B1868704700BF6801002067
:103E9C00054B1B6833B1054B1B68002B14BF00206E
:103EAC000220704701207047D000002064010020E0
:103EBC002DE9F041044620B3284DC36A2A68D26A22
:103ECC00934215D28269002A04DB2A68D26AC2F1B5
:103EDC0005028261224E626903EB830306EB8303C6
:103EEC009A4210D02B68DB6AE3620120BDE8F081B6
:103EFC002B68006DDB6A98422CBF00200120BDE8C6
:103F0C00F081BDE8F08104F104084046FDF724F986
:103F1C0008BBE36A03EB83029200B258DAB9114A88
:103F2C000120116800FA03F321EA030313602B68E4
:103F3C001568DB6AE362012404FA03F703EB8300E0
:103F4C0006EB800047EA050341461360FDF7DCF8F9
:103F5C002046BDE8F081034AE9E700BF6801002074
:103F6C0000010020C4010020F8B50446F0B1284B34
:103F7C001B68984208D04FF0500383F31188BFF3AD
:103F8C006F8FBFF34F8FFEE7436D43B94FF0500374
:103F9C0083F31188BFF36F8FBFF34F8FFEE7C16AB6
:103FAC00026D013B9142436500D00BB10020F8BD7E
:103FBC00071D3846FDF7D0F8B8B1164D164B226DDB
:103FCC00D3F800E0E262012606FA02FCC2F1050019
:103FDC0002EB82023946A0614CEA0E0705EB820027
:103FEC001F60FDF791F83046F8BDE26A094D02EB0F
:103FFC0082039B00EB580BB1074BE0E7064B01200B
:10400C00196800FA02F221EA02021A60D7E700BF2F
:10401C006801002000010020C4010020F8B504460E
:10402C0098B1406D40B94FF0500383F31188BFF342
:10403C006F8FBFF34F8FFEE7226DE36A914228BF6B
:10404C000A46934201D0012800D0F8BD22490968E4
:10405C008C4226D0A169E2620029A8BFC2F10502F8
:10406C001E4DA8BFA26103EB8303626905EB8303BA
:10407C009A42EAD1271D3846FDF76EF8E36AC8B1BB
:10408C000124174A9C409E00D2F800C0F01844EA64
:10409C000C0405EB800039461460BDE8F840FDF7D0
:1040AC0033B84FF0500383F31188BFF36F8FBFF316
:1040BC004F8FFEE79E00F2189200AA581AB1012405
:1040CC009C40074AE0E7064A012411689C4021EA1B
:1040DC0004011160D8E700BF680100200001002036
:1040EC00C4010020044B19681A681B688869DB6AD4
:1040FC00C3F105039361704768010020044B1A68F3
:10410C001AB11A68516D013151651868704700BFBA
:10411C00680100202DE9F0412E4C06460D46FCF7B7
:10412C008FFB23689B6D23B92368012783F85C7090
:10413C00BDB9FCF799FBFCF783FB2368254A9D6D01
:10414C001DB1136856B96A1E9A652368002283F85C
:10415C005C20FCF789FB2846BDE8F08100229A65BB
:10416C00F3E71D4BD3F8008020680430FCF7F4FF14
:10417C0038B92268194BD16A1A688F4022EA0707AE
:10418C001F606B1C20D045442368124A5D60A84513
:10419C0013D8134B186811680431FCF7C3FF114B8B
:1041AC001A68954238BF1D600F4B4FF080521A6051
:1041BC00BFF34F8FBFF36F8FBBE70C4B18681168C1
:1041CC000431FCF7AFFFEFE7216809480431FCF735
:1041DC009BFFE9E76801002074010020C401002066
:1041EC00CC0000206C01002004ED00E078010020E0
:1041FC00E80000202DE9F843374C1E4680460F4658
:10420C001546FCF71DFB236893F85C30022B0AD093
:10421C002268936D23EA0803936523684FF0010825
:10422C0083F85C80F6B9FCF71FFBFCF709FB15B1B2
:10423C0023689B6D2B602368274A93F85C30022B14
:10424C0009D000252368002283F85C20FCF70CFBC6
:10425C002846BDE8F88313689A6D22EA07079F6524
:10426C000125EFE71D4BD3F8009020680430FCF7D4
:10427C0073FF40B922681A4BD26A196808FA02F81F
:10428C0021EA08021A60731C19D04E442368124AA2
:10429C005E60B14519D8134B186811680431FCF7EE
:1042AC0041FF114B1A68964238BF1E600F4B4FF0FE
:1042BC0080521A60BFF34F8FBFF36F8FB3E7216843
:1042CC000B480431FCF720FFF0E70A4B1868116823
:1042DC000431FCF727FFE9E7680100207401002096
:1042EC00C4010020CC0000206C01002004ED00E093
:1042FC00E800002078010020F8B504460E46174669
:10430C001D46C8B1FCF79CFA0DB1A16D296094F85B
:10431C005C5002227B1EEDB284F85C20032B04D887
:10432C00DFE803F03632023AA665012D0DD00125E7
:10433C00FCF79AFA2846F8BD4FF0500383F3118826
:10434C00BFF36F8FBFF34F8FFEE7261D3046FCF790
:10435C0003FF1E4AE36A17681D4805FA03FE03EBC8
:10436C008303314600EB83004EEA07061660FCF728
:10437C00CBFEA36ABBB14FF0500383F31188BFF39C
:10438C006F8FBFF34F8FFEE7A36D0133A365CCE7AF
:10439C00A36D1E43A665C8E7022DC5D10025FCF709
:1043AC0063FA2846F8BD0B4BE26A1B68DB6A9A423B
:1043BC00BDD9094B4FF080521A60BFF34F8FBFF33A
:1043CC006F8FFCF751FA2846F8BD00BFC4010020DE
:1043DC00000100206801002004ED00E02DE9F84305
:1043EC00089F04460D4691461E4620B3FCF704FB7D
:1043FC00EFF311884FF0500383F31188BFF36F8FE5
:10440C00BFF34F8F0EB1A16D316094F85C60022246
:10441C0009F1FF33F6B284F85C20032B04D8DFE8F3
:10442C0003F0221E0226A565012E0DD0012088F373
:10443C001188BDE8F8834FF0500383F31188BFF364
:10444C006F8FBFF34F8FFEE7A36ABBB14FF05003E2
:10445C0083F31188BFF36F8FBFF34F8FFEE7A36D0C
:10446C000133A365E0E7A36D1D43A565DCE7022ED0
:10447C00D9D1002088F31188BDE8F883184B1B684C
:10448C0003BB251D2846FCF767FE164AE36AD2F8E3
:10449C0000E015489E4003EB8303294600EB8300A4
:1044AC0046EA0E051560FCF72FFE104BE26A1B68FE
:1044BC00DB6A9A42BAD95FB10120386088F311885F
:1044CC00BDE8F8830A4804F11801FCF71DFEECE77F
:1044DC00084B0120186088F31188BDE8F88300BFF1
:1044EC0064010020C40100200001002068010020AC
:1044FC00AC010020C80100202DE9F04104460D4616
:10450C00D0B1FCF779FAEFF311884FF0500383F335
:10451C001188BFF36F8FBFF34F8F022394F85C7039
:10452C0084F85C30A36DFFB20133012FA3650CD06E
:10453C0088F31188BDE8F0814FF0500383F31188A4
:10454C00BFF36F8FBFF34F8FFEE7A36A43B14FF0FA
:10455C00500383F31188BFF36F8FBFF34F8FFEE7C8
:10456C00184B1B6803BB261D3046FCF7F5FD164A9D
:10457C00E36AD2F800E015489F4003EB8303314611
:10458C0000EB830047EA0E061660FCF7BDFD104BEE
:10459C00E26A1B68DB6A9A42CAD95DB101232B60BF
:1045AC0088F31188BDE8F0810A4804F11801FCF782
:1045BC00ABFDECE7084B01221A6088F31188BDE8CB
:1045CC00F08100BF64010020C40100200001002024
:1045DC0068010020AC010020C801002010B5044681
:1045EC0070B1FCF72DF994F85C30022B05BF002359
:1045FC0084F85C3000240124FCF736F9204610BD09
:10460C00014B1C68EDE700BF680100202DE9F04765
:10461C00224D234E84B0A8464FF0000A0DE0DB6813
:10462C00DC681F6804F104094846FCF795FD636AD1
:10463C0020469847E369012B0BD02B6817491A6861
:10464C00002AECD1174A10680860136004B0BDE86A
:10465C00F087A3693B44BB4218D833686BB1CDF8E3
:10466C0004A002970394FFF713FC00221346306852
:10467C0001A9FDF715F80028DFD14FF0500383F3A3
:10468C001188BFF36F8FBFF34F8FFEE76360246118
:10469C00D8F800004946FCF745FDCEE7CC010020D8
:1046AC00F801002000020020F0B51C4C83B0FCF790
:1046BC00C7F82668D6B1FCF7D7F823686BB1184B4E
:1046CC001848194902228DE80C004FF4827200231D
:1046DC00FEF782F908B103B0F0BD4FF0500383F33D
:1046EC001188BFF36F8FBFF34F8FFEE70F4F104D45
:1046FC003846FCF7F9FC2846FCF7F6FC0D4A0E4B45
:10470C0017600A2032460C211D60FCF71BFE20604E
:10471C000028D0D00949FDF7CFFFCCE7F8010020E5
:10472C00040200206548000838250108D00100204B
:10473C00E4010020CC0100200002002030250108FB
:10474C002DE9F04F834683B02C200D4692461F4630
:10475C0000F024FA0446F0B145B94FF0500383F34E
:10476C001188BFF36F8FBFF34F8FFEE71A4EFCF724
:10477C0067F8D6F80090B9F1000F10D0FCF774F878
:10478C000C9BC4F800B0A561C4F81CA0276263623E
:10479C00201DFCF7B5FC204603B0BDE8F08F0F4B95
:1047AC00DFF8448001931846FCF79EFC4046FCF76A
:1047BC009BFC0B49019BDFF834E00B604A460A2056
:1047CC000C21CEF80080FCF7BDFD30600028D5D060
:1047DC000449FDF771FFD1E7F8010020D00100205A
:1047EC00CC01002030250108E4010020000200204B
:1047FC0070B584B00546089E10B3164C206870B195
:10480C0005290191029203950BDCFFF741FB02286D
:10481C000ED000222068134601A9FCF741FF04B01A
:10482C0070BD1A4601A90023FDF7B0F804B070BDA5
:10483C002068324601A90023FCF732FF04B070BD9A
:10484C004FF0500383F31188BFF36F8FBFF34F8F7B
:10485C00FEE700BFF80100202DE9F04F8F4D904F7F
:10486C00DFF848A28F4C89B0A8463B681E68D6F189
:10487C00010638BF0026002E4ED1DB68D3F800B0FD
:10488C00FEF700FCFEF706FC2968884203464ED36F
:10489C00C8F80000002E42D19B4556D9C3EB0B0142
:1048AC0032462068FDF796FFFEF7BCFC38B97E4A0D
:1048BC004FF080531360BFF34F8FBFF36F8F4FF0E8
:1048CC0000090126206805A90022FDF717F9002828
:1048DC00CBD0059B002BF5DBDDF81CB0DBF81420EE
:1048EC001AB10BF10400FCF737FCFEF7D3FB2A6876
:1048FC00904225D3059A2860092AE3D806FA02F2D9
:10490C0012F4047F69D112F0C70F7AD19306D9D56E
:10491C00584600F073F9D5E74FF0000BB0E7DAF822
:10492C0000100E68D6F1010638BF0026B6E70290DB
:10493C00FFF76CFE029BC8F80030FEF773FCBEE775
:10494C000390FFF763FE0398D4E70293FEF76AFC2B
:10495C003968C968D1F80C9009F104010846039133
:10496C00FCF7FAFBD9F81C000399029B012804D030
:10497C00D9F8243048469847A1E7D9F81800C9F867
:10498C0010900BEB00029342C9F8042020D3CBEB20
:10499C000303984262D82168424B81B10293059679
:1049AC00CDF818B0CDF81C90FFF772FA029B324686
:1049BC00186805A93346FCF773FE0028D8D14FF0D0
:1049CC00500383F31188BFF36F8FBFF34F8FFEE754
:1049DC00334A1068FCF7A6FBCAE7069ACBF81820F6
:1049EC00002A51D002448242CBF80420CBF810B0FC
:1049FC000BF1040194BFDAF800003868FCF792FB65
:104A0C0060E7069ADBF81830CBF810B099188142A1
:104A1C00CBF8041027D8821A93422ED8DBF8242026
:104A2C0058469047DBF81C20012A7FF44BAFDBF88B
:104A3C001830069ACDF8009000211A4458460B46BF
:104A4C00FFF7D6FE00287FF43DAF4FF0500383F301
:104A5C001188BFF36F8FBFF34F8FFEE7DAF80000BA
:104A6C00FCF760FB84E7824201D98A42D6D90BF16C
:104A7C0004013868FCF756FB24E70BF10401DAF863
:104A8C000000FCF74FFB1DE74FF0500383F3118838
:104A9C00BFF36F8FBFF34F8FFEE700BFFC01002009
:104AAC00CC010020F801002004ED00E00002002001
:104ABC00064B186800B170474FF0500383F3118810
:104ACC00BFF36F8FBFF34F8FFEE700BF04020020D0
:104ADC0008B1806970474FF0500383F31188BFF31E
:104AEC006F8FBFF34F8FFEE708B1406870474FF0F0
:104AFC00500383F31188BFF36F8FBFF34F8FFEE723
:104B0C0008B1006870474FF0500383F31188BFF36E
:104B1C006F8FBFF34F8FFEE710B5044648B1FBF71C
:104B2C008FFE6469003418BF0124FBF79DFE2046FC
:104B3C0010BD4FF0500383F31188BFF36F8FBFF399
:104B4C004F8FFEE710B5044630B1FBF779FE246AAF
:104B5C00FBF78AFE204610BD4FF0500383F31188FB
:104B6C00BFF36F8FBFF34F8FFEE700BF38B504461E
:104B7C000D4630B1FBF764FE2562BDE83840FBF70B
:104B8C0073BE4FF0500383F31188BFF36F8FBFF3E5
:104B9C004F8FFEE7806A70478162704738B54307D4
:104BAC0004461CBF20F007040834FEF76BFA0F4BC9
:104BBC001D68ADB10E4A0F4913681C448C4208D8CD
:104BCC00A34206D21D441460FEF72CFB1DB12846EF
:104BDC0038BDFEF727FB0025FBF7A2FC284638BDA5
:104BEC00054D25F007051D60E4E700BF0C02002011
:104BFC0008020020F72B01001802002040B14FF0F2
:104C0C00500383F31188BFF36F8FBFF34F8FFEE711
:104C1C00704700BF014B00221A6070470802002049
:104C2C00034B1868C0F5953000F5FC70704700BF59
:104C3C000802002070B582B0FBF702FE0F4B1D6816
:104C4C001A6801321A60FBF70FFEFEF723FA02AC6A
:104C5C0040F24D1605FB066644F8040D7608314605
:104C6C002046FEF759FB2846FBF74CFD2046314603
:104C7C00FEF752FB2846FBF745FDF0E7102E01200E
:104C8C0070B5064682B003240025009601950548B0
:104C9C00054982220023FDF79FFE013CF5D102B0AD
:104CAC0070BD00BF414C00084025010840F0BF60BA
:104CBC00024B40F40030D860704700BF00ED00E0BC
:104CCC00C378F0B463B90378194A5909203103F059
:104CDC001F03012000FA03F342F82130F0BC7047A7
:104CEC00144B4778DA68857803781149D243C2F3BC
:104CFC000222C2F104040F26E4B207FA04F446FAC5
:104D0C0002F2E4B22A40224303F1604303F561430B
:104D1C001201D2B283F800230378012003F01F02A2
:104D2C005B0900FA02F241F82320F0BC704700BF87
:104D3C0000E100E000ED00E021F0604121F07F0196
:104D4C00014B08439860704700ED00E0044B1A6972
:104D5C0019B922EA000018617047104318617047B6
:104D6C0000ED00E0044B1A6804280CBF42F004026A
:104D7C0022F004021A60704710E000E010B4374AC9
:104D8C000468002324F00104212190420460036094
:104D9C0043608360C360036141614DD0304B9842E6
:104DAC0035D0304B984239D02F4B98423DD02F4BB9
:104DBC00984247D02E4B984248D02E4B98421DD04B
:104DCC002D4B98421ED02D4B984243D02C4B9842E1
:104DDC001DD02C4B984221D02B4B984225D02B4BDD
:104DEC0098422FD02A4B984230D02A4B984205D06B
:104DFC00294B984206D05DF8044B7047274A43F87C
:104E0C00942CF8E74FF03D5243F8AC2CF3E74FF4F9
:104E1C00746243F8202C5DF8044B70474FF4741205
:104E2C0043F8382C5DF8044B70474FF0746243F82C
:104E3C00502C5DF8044B7047194B5DF8044B3D2228
:104E4C009A607047174A43F8642CD4E7164A43F823
:104E5C007C2CD0E73D2243F8082CCCE710600240B4
:104E6C00286002404060024058600240706002407E
:104E7C0088600240A0600240B860024010640240AA
:104E8C00286402404064024058640240706402404E
:104E9C0088640240A0640240B864024000003D20D7
:104EAC00006002403D000020400F0020CA680B68E3
:104EBC00D0F800C02DE9F0074F698E69CD690C6AF6
:104ECC00D1F83490D1F8388042EA030A4AEA07074D
:104EDC003E434B6A4F6835432C4344EA03028B6ACA
:104EEC000D4ECC6A0D691A4342EA090949EA0808D1
:104EFC000CEA060648EA06060B6B896806604269EE
:104F0C00234322F007021343436145608760C1606D
:104F1C00BDE8F007704700BF3F801CF00023036022
:104F2C0043608360C360036143618361C361036257
:104F3C0043628362C362036343638363704700BF4E
:104F4C00036819B923F001030360704743F00103B0
:104F5C0003607047036819B923F40043036070477A
:104F6C0043F4004303607047036819B923F020032E
:104F7C000360704743F02003036070474160704743
:104F8C00406880B2704700BF036822B923F4002345
:104F9C0003600161704743F40023036001617047B3
:104FAC00036819B923F480230360704743F480230A
:104FBC00036070470AB9C16070470161704700BF58
:104FCC000068C0F3C0407047006800F001007047F3
:104FDC00406900F0380070470B4B0C4A10B40C4C75
:104FEC00A0428CBF104618468B004CBF4368036828
:104FFC005DF8044B21F0F02121F0821119420CBF15
:10500C0000200120704700BF006002400064024095
:10501C000F64024010B4094A094C0A4BA0428CBFE1
:10502C001046184611F0005F21F0F02121F082119A
:10503C0014BFC16081605DF8044B7047006402408E
:10504C000F640240006002400B060CD54369AAB104
:10505C0043F08003802943610FD0036801F01E01E7
:10506C00194301607047802907D0002AF5D10368E5
:10507C0001F01E0123EA01010160704723F0800357
:10508C0080294361F3D1704770B4114A114D124C11
:10509C0021F0F02323F0C316A84288BF224696B114
:1050AC00046804F01E0404EAD12489004CBF526841
:1050BC00126823F0821313EA020002D0201C18BFDE
:1050CC00012070BC7047446904F08004EDE700BF18
:1050DC00006002400F6402400064024010B4094AB0
:1050EC00094C0A4BA0428CBF1046184611F0005FC9
:1050FC0021F0F02121F0821114BFC16081605DF8B4
:10510C00044B7047006402400F6402400060024090
:10511C0008B54FF40000012101F074FD4FF40000BC
:10512C000021BDE8084001F06DBD00BF294B1A6895
:10513C0022F0031222F4F85270B41A601968026853
:10514C000A431A605A6B22F007025A63596B426881
:10515C0011435963C66805695AB3012A2ED0022A35
:10516C0030D0032A446931D036012D022403194B67
:10517C008268996B1143314341EA050222439A63D9
:10518C008269DA631A6C22F47F5222F03F021A64AD
:10519C00196CC2690A431A645A6C416A02F04042A3
:1051AC005A64026A586C024342EA01425A6470BC67
:1051BC007047446936022D042406D8E736022D04C4
:1051CC000024D4E77601ED020024D0E77601AD028D
:1051DC00E403CCE700B00240002303604360C360EB
:1051EC008360036143618361C361036243627047FF
:1051FC00024B1A6842F001021A60704700B002407C
:10520C00024B1A6842F004021A60704700B0024068
:10521C00054B1A6818B922F002021A60704742F066
:10522C0002021A60704700BF00B00240194B0268BE
:10523C00F0B4DA601969184A21F47F5121F03F016A
:10524C0019611C69416821431961D9690A40DA6105
:10525C00DF698668C5680469416982693E4346EA2C
:10526C00051545EA042444EA014141EA0262DA6187
:10527C001A6A02F07F421A621D6AC469016A426AA4
:10528C002C4344EA012141EA02421A62826ADA6240
:10529C00F0BC704700B00240C000FC00002303606B
:1052AC0043608360C360036143618361C3610362D4
:1052BC0043628362704700BF194B0268F0B45A61B5
:1052CC009969184A21F47F5121F03F0199619C6939
:1052DC00416821439961596A0A405A625F6A86683B
:1052EC00C5680469416982693E4346EA051545EA89
:1052FC00042444EA014141EA02625A629A6A02F0C9
:10530C007F429A629D6AC469016A426A2C4344EAEC
:10531C00012141EA02429A62826A1A63F0BC704728
:10532C0000B00240C000FC000023036043608360B7
:10533C00C360036143618361C3610362436283623F
:10534C00704700BF054BDA6918B922F02002DA6108
:10535C00704742F02002DA61704700BF00B0024093
:10536C00054B5A6A18B922F020025A62704742F073
:10537C0020025A62704700BF00B00240094BDA6C41
:10538C0019B922F00102DA64704722F47F4222F04C
:10539C000102DA64DA6C42F0010242EA0020D864BD
:1053AC00704700BF00B00240014B9864704700BFCB
:1053BC0000B00240044B1A6819B922EA00001860C8
:1053CC00704710431860704700B00240034B5B6895
:1053DC0018420CBF00200120704700BF00B00240F3
:1053EC00014B9860704700BF00B00240064B5A68F2
:1053FC001B68034005D012EA10200CBF00200120CE
:10540C0070471846704700BF00B00240014B000ABD
:10541C009860704700B0024010B44FF0204380B148
:10542C0043F2D20243F82020441C4FF02041074A9B
:10543C006FF0704341F8243042F820305DF8044B93
:10544C00704743F2DB021A60EEE700BF040100A0D4
:10545C002DE9F00F4368D0F808A0C76806694569C4
:10546C008469C169026AD0F800C0D0F82890DFF8CE
:10547C0008814AEA030B4BEA07073E4335432C43AA
:10548C0021430A43416AC76A066B446B4FEA8C0599
:10549C0042EA010305F1204543EA090329681F4349
:1054AC003E43264301EA080846EA0806BAF1080F0B
:1054BC002E6028D0B4F5801F2CD0836B1A6993E82A
:1054CC009000D3F818809E68D9685B6948EA040498
:1054DC0044EA071444EA062444EA014444EA036417
:1054EC000CF101014FF0204344EA0252B9F5804F10
:1054FC0043F8212025D01E4B6FF0704243F82C202E
:10550C00BDE8F00F70472B68B4F5801F43F04003E3
:10551C002B60D2D1BCF1000FCFD04FF02041836B68
:10552C004C680A6842F480120A600A6842F480727D
:10553C000A601A6924F47004561E44EA06544C603E
:10554C00BDE7C36BD5F804119F699C68D86893E8D4
:10555C0044003A4342EA0612064B42EA042242EA6B
:10556C0000420B401343C5F80431BDE8F00F7047FF
:10557C00040100A00000F0CF8000E7FF70B400230E
:10558C00022610254FF480540A4A46604FF400510D
:10559C00C56004624162036083600361C36243615E
:1055AC008361C3618362036343638263C26370BCC0
:1055BC00704700BF48250108800000F1204021B948
:1055CC000268044B134003607047036843F0010307
:1055DC0003607047FEFF0F0010280CBF054B064BF5
:1055EC004FF0FC3218204021186059609A60DA6044
:1055FC00704700BF600000A0800000A02DE9F007FC
:10560C00476886680268C56804693E4346F0080628
:10561C00102A46EA05050CBF244B254B2C43456943
:10562C001968244B44EA452485690B4044EA453407
:10563C00102A44EA030424D0C169026AD1F808A0F4
:10564C00D1F80480D2F808900F68CD68184BD2F8C6
:10565C0004C01668D0684FEA0A414FEA094241EA91
:10566C00082142EA0C223943324341EA056142EAFD
:10567C0000629868D8681C609960BDE8F007DA6031
:10568C007047C269036A5168D3F80890D2F8088051
:10569C00D3F804C017681E68D568D868034B090294
:1056AC004FEA094241EA0841DBE700BF600000A075
:1056BC00800000A08101F0FF30B4016AC469FC23B2
:1056CC0000221025056085604260C2600261426163
:1056DC00826123606360A360E3600B604B608B604E
:1056EC00CB6030BC704700BF41B110280CBF084BD9
:1056FC00084B1A6842F004021A60704710280CBF5D
:10570C00034A044A044B11680B401360704700BFF6
:10571C00600000A0800000A0FBFF0F0041B110282A
:10572C000CBF084B084B1A6842F040021A607047D5
:10573C0010280CBF034A044A044B11680B40136039
:10574C00704700BF600000A0800000A0BFFF0F00EA
:10575C0010280CBF014B024B58697047600000A029
:10576C00800000A0054B4FF0FC321820002118607F
:10577C0059609A60DA601A61704700BFA00000A0FF
:10578C001C4B0169D3F800C04269F0B40768C468C7
:10579C00466885682CF4FF3047F0100720F0320083
:1057AC00384340EA462040EA4530186094E86000EF
:1057BC00A068E4689F68000440EA0620284340EA99
:1057CC000460986091E87000C868D968310441EAB7
:1057DC000521214341EA0061D96092E83100D1688A
:1057EC001A692A0442EA0422024342EA01621A615B
:1057FC00F0BC7047A00000A030B40169C4684269D5
:10580C00FC23002505604560856023606360A36010
:10581C00E3600B604B608B60CB6030BC13605360FB
:10582C009360D360704700BF28B9064A064B1168D5
:10583C000B4013607047034B1A6842F004021A6065
:10584C00704700BFA00000A0FBFF0F0030B4800029
:10585C00084B00F1204000224FF434756FF0704477
:10586C00C0F84051C0F848411A6130BC5A619A6185
:10587C00704700BF400100A02DE9F007466887681B
:10588C00C168056902688369D0F81CC0D0F8208013
:10589C00446A37430F432F434FEA820A45690AF1A2
:1058AC0020412F431F43D1F8406147EA0C0726F4EF
:1058BC00FF4347EA0807274323F07F031F4301F503
:1058CC00A07632BB2E4A836A17601F68D2F808C0D4
:1058DC005E689D68DC6803F110000BC80CF0704C1E
:1058EC00013F47EA0C07013E47EA0616013D46EA2E
:1058FC000525013C45EA0434013844EA00400139ED
:10590C0040EA0151013B41EA03639360BDE8F007B3
:10591C0070471B4D826A2B6848EA0C0C23F4FF433A
:10592C004CEA040423F07F0323432B60C1F840713D
:10593C00D6F8089054685769D2F800C0D2F80C8099
:10594C0091681369A86809F07042013C42EA04149A
:10595C00013F0CF1FF3C3F0508F1FF3244EA0C0417
:10596C00013947EA023244EA012100F07040013B60
:10597C00024341EA0343AA60B360BDE8F0077047F5
:10598C00400100A030B4826A40230361002110233F
:10599C0080254FF400744561846101604160816031
:1059AC00C16101624162C36030BC1360536093609B
:1059BC00D360136153619361704700BF30B490E8BA
:1059CC002200C4688268054B294341EA4421013A0C
:1059DC0041EA42121A6130BC704700BF400100A07E
:1059EC00054B20B1986900F0180080087047986941
:1059FC0000F00600704700BF400100A0024B5A693E
:105A0C0042EA400058617047400100A0024B1A69FD
:105A1C0042EA401018617047400100A0800000F17C
:105A2C00204039B9D0F8402147F6FF531340C0F855
:105A3C0040317047D0F8403143F40073C0F8403126
:105A4C00704700BF62B110281ED0B0F5807F2BD0FC
:105A5C00B0F5805F1DD01A4B5A69114359617047DC
:105A6C0010280BD0B0F5807F18D0B0F5805F20D017
:105A7C00134B5A6922EA010159617047114B5A685C
:105A8C0022EA0101596070470E4B5A681143596064
:105A9C0070470D4B5A681143596070470B4B5A684D
:105AAC0022EA010159607047084B5A68114359604A
:105ABC007047054B5A6822EA01015960704700BFD4
:105ACC00400100A0600000A0A00000A0800000A089
